{
	"lottery smart_contract/lottery.sol": {
		"Lottery": {
			"abi": [
				{
					"inputs": [],
					"stateMutability": "nonpayable",
					"type": "constructor"
				},
				{
					"inputs": [],
					"name": "enter",
					"outputs": [],
					"stateMutability": "payable",
					"type": "function"
				},
				{
					"inputs": [],
					"name": "getPlayers",
					"outputs": [
						{
							"internalType": "address payable[]",
							"name": "",
							"type": "address[]"
						}
					],
					"stateMutability": "view",
					"type": "function"
				},
				{
					"inputs": [],
					"name": "manager",
					"outputs": [
						{
							"internalType": "address",
							"name": "",
							"type": "address"
						}
					],
					"stateMutability": "view",
					"type": "function"
				},
				{
					"inputs": [],
					"name": "pickWinner",
					"outputs": [],
					"stateMutability": "nonpayable",
					"type": "function"
				},
				{
					"inputs": [
						{
							"internalType": "uint256",
							"name": "",
							"type": "uint256"
						}
					],
					"name": "players",
					"outputs": [
						{
							"internalType": "address payable",
							"name": "",
							"type": "address"
						}
					],
					"stateMutability": "view",
					"type": "function"
				}
			],
			"devdoc": {
				"kind": "dev",
				"methods": {},
				"version": 1
			},
			"evm": {
				"assembly": "    /* \"lottery smart_contract/lottery.sol\":58:1349  contract Lottery{... */\n  mstore(0x40, 0x80)\n    /* \"lottery smart_contract/lottery.sol\":213:264  constructor() {... */\n  callvalue\n  dup1\n  iszero\n  tag_1\n  jumpi\n  0x00\n  dup1\n  revert\ntag_1:\n  pop\n    /* \"lottery smart_contract/lottery.sol\":247:257  msg.sender */\n  caller\n    /* \"lottery smart_contract/lottery.sol\":237:244  manager */\n  0x00\n  dup1\n    /* \"lottery smart_contract/lottery.sol\":237:257  manager = msg.sender */\n  0x0100\n  exp\n  dup2\n  sload\n  dup2\n  0xffffffffffffffffffffffffffffffffffffffff\n  mul\n  not\n  and\n  swap1\n  dup4\n  0xffffffffffffffffffffffffffffffffffffffff\n  and\n  mul\n  or\n  swap1\n  sstore\n  pop\n    /* \"lottery smart_contract/lottery.sol\":58:1349  contract Lottery{... */\n  dataSize(sub_0)\n  dup1\n  dataOffset(sub_0)\n  0x00\n  codecopy\n  0x00\n  return\nstop\n\nsub_0: assembly {\n        /* \"lottery smart_contract/lottery.sol\":58:1349  contract Lottery{... */\n      mstore(0x40, 0x80)\n      jumpi(tag_1, lt(calldatasize, 0x04))\n      shr(0xe0, calldataload(0x00))\n      dup1\n      0x481c6a75\n      eq\n      tag_2\n      jumpi\n      dup1\n      0x5d495aea\n      eq\n      tag_3\n      jumpi\n      dup1\n      0x8b5b9ccc\n      eq\n      tag_4\n      jumpi\n      dup1\n      0xe97dcb62\n      eq\n      tag_5\n      jumpi\n      dup1\n      0xf71d96cb\n      eq\n      tag_6\n      jumpi\n    tag_1:\n      0x00\n      dup1\n      revert\n        /* \"lottery smart_contract/lottery.sol\":80:103  address public  manager */\n    tag_2:\n      callvalue\n      dup1\n      iszero\n      tag_7\n      jumpi\n      0x00\n      dup1\n      revert\n    tag_7:\n      pop\n      tag_8\n      tag_9\n      jump\t// in\n    tag_8:\n      mload(0x40)\n      tag_10\n      swap2\n      swap1\n      tag_11\n      jump\t// in\n    tag_10:\n      mload(0x40)\n      dup1\n      swap2\n      sub\n      swap1\n      return\n        /* \"lottery smart_contract/lottery.sol\":668:1103  function pickWinner() public restricted{... */\n    tag_3:\n      callvalue\n      dup1\n      iszero\n      tag_12\n      jumpi\n      0x00\n      dup1\n      revert\n    tag_12:\n      pop\n      tag_13\n      tag_14\n      jump\t// in\n    tag_13:\n      stop\n        /* \"lottery smart_contract/lottery.sol\":1249:1347  function getPlayers() public view returns(address payable[] memory){... */\n    tag_4:\n      callvalue\n      dup1\n      iszero\n      tag_15\n      jumpi\n      0x00\n      dup1\n      revert\n    tag_15:\n      pop\n      tag_16\n      tag_17\n      jump\t// in\n    tag_16:\n      mload(0x40)\n      tag_18\n      swap2\n      swap1\n      tag_19\n      jump\t// in\n    tag_18:\n      mload(0x40)\n      dup1\n      swap2\n      sub\n      swap1\n      return\n        /* \"lottery smart_contract/lottery.sol\":270:513  function enter() public payable  {... */\n    tag_5:\n      tag_20\n      tag_21\n      jump\t// in\n    tag_20:\n      stop\n        /* \"lottery smart_contract/lottery.sol\":174:206  address payable[] public players */\n    tag_6:\n      callvalue\n      dup1\n      iszero\n      tag_22\n      jumpi\n      0x00\n      dup1\n      revert\n    tag_22:\n      pop\n      tag_23\n      0x04\n      dup1\n      calldatasize\n      sub\n      dup2\n      add\n      swap1\n      tag_24\n      swap2\n      swap1\n      tag_25\n      jump\t// in\n    tag_24:\n      tag_26\n      jump\t// in\n    tag_23:\n      mload(0x40)\n      tag_27\n      swap2\n      swap1\n      tag_28\n      jump\t// in\n    tag_27:\n      mload(0x40)\n      dup1\n      swap2\n      sub\n      swap1\n      return\n        /* \"lottery smart_contract/lottery.sol\":80:103  address public  manager */\n    tag_9:\n      0x00\n      dup1\n      sload\n      swap1\n      0x0100\n      exp\n      swap1\n      div\n      0xffffffffffffffffffffffffffffffffffffffff\n      and\n      dup2\n      jump\t// out\n        /* \"lottery smart_contract/lottery.sol\":668:1103  function pickWinner() public restricted{... */\n    tag_14:\n        /* \"lottery smart_contract/lottery.sol\":1163:1170  manager */\n      0x00\n      dup1\n      sload\n      swap1\n      0x0100\n      exp\n      swap1\n      div\n      0xffffffffffffffffffffffffffffffffffffffff\n      and\n        /* \"lottery smart_contract/lottery.sol\":1149:1170  msg.sender == manager */\n      0xffffffffffffffffffffffffffffffffffffffff\n      and\n        /* \"lottery smart_contract/lottery.sol\":1149:1159  msg.sender */\n      caller\n        /* \"lottery smart_contract/lottery.sol\":1149:1170  msg.sender == manager */\n      0xffffffffffffffffffffffffffffffffffffffff\n      and\n      eq\n        /* \"lottery smart_contract/lottery.sol\":1141:1190  require(msg.sender == manager, \"Not the manager\") */\n      tag_30\n      jumpi\n      mload(0x40)\n      0x08c379a000000000000000000000000000000000000000000000000000000000\n      dup2\n      mstore\n      0x04\n      add\n      tag_31\n      swap1\n      tag_32\n      jump\t// in\n    tag_31:\n      mload(0x40)\n      dup1\n      swap2\n      sub\n      swap1\n      revert\n    tag_30:\n        /* \"lottery smart_contract/lottery.sol\":742:743  0 */\n      0x00\n        /* \"lottery smart_contract/lottery.sol\":725:732  players */\n      0x01\n        /* \"lottery smart_contract/lottery.sol\":725:739  players.length */\n      dup1\n      sload\n      swap1\n      pop\n        /* \"lottery smart_contract/lottery.sol\":725:743  players.length > 0 */\n      gt\n        /* \"lottery smart_contract/lottery.sol\":717:773  require(players.length > 0, \"No players in the lottery\") */\n      tag_34\n      jumpi\n      mload(0x40)\n      0x08c379a000000000000000000000000000000000000000000000000000000000\n      dup2\n      mstore\n      0x04\n      add\n      tag_35\n      swap1\n      tag_36\n      jump\t// in\n    tag_35:\n      mload(0x40)\n      dup1\n      swap2\n      sub\n      swap1\n      revert\n    tag_34:\n        /* \"lottery smart_contract/lottery.sol\":784:794  uint index */\n      0x00\n        /* \"lottery smart_contract/lottery.sol\":808:815  players */\n      0x01\n        /* \"lottery smart_contract/lottery.sol\":808:822  players.length */\n      dup1\n      sload\n      swap1\n      pop\n        /* \"lottery smart_contract/lottery.sol\":797:805  random() */\n      tag_37\n        /* \"lottery smart_contract/lottery.sol\":797:803  random */\n      tag_38\n        /* \"lottery smart_contract/lottery.sol\":797:805  random() */\n      jump\t// in\n    tag_37:\n        /* \"lottery smart_contract/lottery.sol\":797:822  random() % players.length */\n      tag_39\n      swap2\n      swap1\n      tag_40\n      jump\t// in\n    tag_39:\n        /* \"lottery smart_contract/lottery.sol\":784:822  uint index = random() % players.length */\n      swap1\n      pop\n        /* \"lottery smart_contract/lottery.sol\":832:854  address payable winner */\n      0x00\n        /* \"lottery smart_contract/lottery.sol\":857:864  players */\n      0x01\n        /* \"lottery smart_contract/lottery.sol\":865:870  index */\n      dup3\n        /* \"lottery smart_contract/lottery.sol\":857:871  players[index] */\n      dup2\n      sload\n      dup2\n      lt\n      tag_41\n      jumpi\n      tag_42\n      tag_43\n      jump\t// in\n    tag_42:\n    tag_41:\n      swap1\n      0x00\n      mstore\n      keccak256(0x00, 0x20)\n      add\n      0x00\n      swap1\n      sload\n      swap1\n      0x0100\n      exp\n      swap1\n      div\n      0xffffffffffffffffffffffffffffffffffffffff\n      and\n        /* \"lottery smart_contract/lottery.sol\":832:871  address payable winner = players[index] */\n      swap1\n      pop\n        /* \"lottery smart_contract/lottery.sol\":883:895  bool success */\n      0x00\n        /* \"lottery smart_contract/lottery.sol\":900:906  winner */\n      dup2\n        /* \"lottery smart_contract/lottery.sol\":900:911  winner.call */\n      0xffffffffffffffffffffffffffffffffffffffff\n      and\n        /* \"lottery smart_contract/lottery.sol\":919:940  address(this).balance */\n      selfbalance\n        /* \"lottery smart_contract/lottery.sol\":900:945  winner.call{value: address(this).balance}(\"\") */\n      mload(0x40)\n      tag_45\n      swap1\n      tag_46\n      jump\t// in\n    tag_45:\n      0x00\n      mload(0x40)\n      dup1\n      dup4\n      sub\n      dup2\n      dup6\n      dup8\n      gas\n      call\n      swap3\n      pop\n      pop\n      pop\n      returndatasize\n      dup1\n      0x00\n      dup2\n      eq\n      tag_49\n      jumpi\n      mload(0x40)\n      swap2\n      pop\n      and(add(returndatasize, 0x3f), not(0x1f))\n      dup3\n      add\n      0x40\n      mstore\n      returndatasize\n      dup3\n      mstore\n      returndatasize\n      0x00\n      0x20\n      dup5\n      add\n      returndatacopy\n      jump(tag_48)\n    tag_49:\n      0x60\n      swap2\n      pop\n    tag_48:\n      pop\n        /* \"lottery smart_contract/lottery.sol\":882:945  (bool success,) = winner.call{value: address(this).balance}(\"\") */\n      pop\n      swap1\n      pop\n        /* \"lottery smart_contract/lottery.sol\":963:970  success */\n      dup1\n        /* \"lottery smart_contract/lottery.sol\":955:989  require(success,\"Transfer failed\") */\n      tag_50\n      jumpi\n      mload(0x40)\n      0x08c379a000000000000000000000000000000000000000000000000000000000\n      dup2\n      mstore\n      0x04\n      add\n      tag_51\n      swap1\n      tag_52\n      jump\t// in\n    tag_51:\n      mload(0x40)\n      dup1\n      swap2\n      sub\n      swap1\n      revert\n    tag_50:\n        /* \"lottery smart_contract/lottery.sol\":1094:1095  0 */\n      0x00\n        /* \"lottery smart_contract/lottery.sol\":1072:1096  new address payable[](0) */\n      0xffffffffffffffff\n      dup2\n      gt\n      iszero\n      tag_53\n      jumpi\n      tag_54\n      tag_55\n      jump\t// in\n    tag_54:\n    tag_53:\n      mload(0x40)\n      swap1\n      dup1\n      dup3\n      mstore\n      dup1\n      0x20\n      mul\n      0x20\n      add\n      dup3\n      add\n      0x40\n      mstore\n      dup1\n      iszero\n      tag_56\n      jumpi\n      dup2\n      0x20\n      add\n      0x20\n      dup3\n      mul\n      dup1\n      calldatasize\n      dup4\n      calldatacopy\n      dup1\n      dup3\n      add\n      swap2\n      pop\n      pop\n      swap1\n      pop\n    tag_56:\n      pop\n        /* \"lottery smart_contract/lottery.sol\":1062:1069  players */\n      0x01\n        /* \"lottery smart_contract/lottery.sol\":1062:1096  players = new address payable[](0) */\n      swap1\n      dup1\n      mload\n      swap1\n      0x20\n      add\n      swap1\n      tag_57\n      swap3\n      swap2\n      swap1\n      tag_58\n      jump\t// in\n    tag_57:\n      pop\n        /* \"lottery smart_contract/lottery.sol\":707:1103  {... */\n      pop\n      pop\n      pop\n        /* \"lottery smart_contract/lottery.sol\":668:1103  function pickWinner() public restricted{... */\n      jump\t// out\n        /* \"lottery smart_contract/lottery.sol\":1249:1347  function getPlayers() public view returns(address payable[] memory){... */\n    tag_17:\n        /* \"lottery smart_contract/lottery.sol\":1291:1315  address payable[] memory */\n      0x60\n        /* \"lottery smart_contract/lottery.sol\":1333:1340  players */\n      0x01\n        /* \"lottery smart_contract/lottery.sol\":1326:1340  return players */\n      dup1\n      sload\n      dup1\n      0x20\n      mul\n      0x20\n      add\n      mload(0x40)\n      swap1\n      dup2\n      add\n      0x40\n      mstore\n      dup1\n      swap3\n      swap2\n      swap1\n      dup2\n      dup2\n      mstore\n      0x20\n      add\n      dup3\n      dup1\n      sload\n      dup1\n      iszero\n      tag_60\n      jumpi\n      0x20\n      mul\n      dup3\n      add\n      swap2\n      swap1\n      0x00\n      mstore\n      keccak256(0x00, 0x20)\n      swap1\n    tag_61:\n      dup2\n      0x00\n      swap1\n      sload\n      swap1\n      0x0100\n      exp\n      swap1\n      div\n      0xffffffffffffffffffffffffffffffffffffffff\n      and\n      0xffffffffffffffffffffffffffffffffffffffff\n      and\n      dup2\n      mstore\n      0x20\n      add\n      swap1\n      0x01\n      add\n      swap1\n      dup1\n      dup4\n      gt\n      tag_61\n      jumpi\n    tag_60:\n      pop\n      pop\n      pop\n      pop\n      pop\n      swap1\n      pop\n        /* \"lottery smart_contract/lottery.sol\":1249:1347  function getPlayers() public view returns(address payable[] memory){... */\n      swap1\n      jump\t// out\n        /* \"lottery smart_contract/lottery.sol\":270:513  function enter() public payable  {... */\n    tag_21:\n        /* \"lottery smart_contract/lottery.sol\":333:342  .01 ether */\n      0x2386f26fc10000\n        /* \"lottery smart_contract/lottery.sol\":321:330  msg.value */\n      callvalue\n        /* \"lottery smart_contract/lottery.sol\":321:342  msg.value < .01 ether */\n      lt\n        /* \"lottery smart_contract/lottery.sol\":313:390  require(msg.value < .01 ether, \"The amount should be greater than .01 ether\") */\n      tag_63\n      jumpi\n      mload(0x40)\n      0x08c379a000000000000000000000000000000000000000000000000000000000\n      dup2\n      mstore\n      0x04\n      add\n      tag_64\n      swap1\n      tag_65\n      jump\t// in\n    tag_64:\n      mload(0x40)\n      dup1\n      swap2\n      sub\n      swap1\n      revert\n    tag_63:\n        /* \"lottery smart_contract/lottery.sol\":473:480  players */\n      0x01\n        /* \"lottery smart_contract/lottery.sol\":494:504  msg.sender */\n      caller\n        /* \"lottery smart_contract/lottery.sol\":473:506  players.push(payable(msg.sender)) */\n      swap1\n      dup1\n      0x01\n      dup2\n      sload\n      add\n      dup1\n      dup3\n      sstore\n      dup1\n      swap2\n      pop\n      pop\n      0x01\n      swap1\n      sub\n      swap1\n      0x00\n      mstore\n      keccak256(0x00, 0x20)\n      add\n      0x00\n      swap1\n      swap2\n      swap1\n      swap2\n      swap1\n      swap2\n      0x0100\n      exp\n      dup2\n      sload\n      dup2\n      0xffffffffffffffffffffffffffffffffffffffff\n      mul\n      not\n      and\n      swap1\n      dup4\n      0xffffffffffffffffffffffffffffffffffffffff\n      and\n      mul\n      or\n      swap1\n      sstore\n      pop\n        /* \"lottery smart_contract/lottery.sol\":270:513  function enter() public payable  {... */\n      jump\t// out\n        /* \"lottery smart_contract/lottery.sol\":174:206  address payable[] public players */\n    tag_26:\n      0x01\n      dup2\n      dup2\n      sload\n      dup2\n      lt\n      tag_67\n      jumpi\n      0x00\n      dup1\n      revert\n    tag_67:\n      swap1\n      0x00\n      mstore\n      keccak256(0x00, 0x20)\n      add\n      0x00\n      swap2\n      pop\n      sload\n      swap1\n      0x0100\n      exp\n      swap1\n      div\n      0xffffffffffffffffffffffffffffffffffffffff\n      and\n      dup2\n      jump\t// out\n        /* \"lottery smart_contract/lottery.sol\":519:662  function random() private view returns (uint) {... */\n    tag_38:\n        /* \"lottery smart_contract/lottery.sol\":559:563  uint */\n      0x00\n        /* \"lottery smart_contract/lottery.sol\":610:626  block.prevrandao */\n      prevrandao\n        /* \"lottery smart_contract/lottery.sol\":628:643  block.timestamp */\n      timestamp\n        /* \"lottery smart_contract/lottery.sol\":645:652  players */\n      0x01\n        /* \"lottery smart_contract/lottery.sol\":593:653  abi.encodePacked(block.prevrandao, block.timestamp, players) */\n      add(0x20, mload(0x40))\n      tag_70\n      swap4\n      swap3\n      swap2\n      swap1\n      tag_71\n      jump\t// in\n    tag_70:\n      mload(0x40)\n      0x20\n      dup2\n      dup4\n      sub\n      sub\n      dup2\n      mstore\n      swap1\n      0x40\n      mstore\n        /* \"lottery smart_contract/lottery.sol\":583:654  keccak256(abi.encodePacked(block.prevrandao, block.timestamp, players)) */\n      dup1\n      mload\n      swap1\n      0x20\n      add\n      keccak256\n        /* \"lottery smart_contract/lottery.sol\":578:655  uint(keccak256(abi.encodePacked(block.prevrandao, block.timestamp, players))) */\n      0x00\n      shr\n        /* \"lottery smart_contract/lottery.sol\":571:655  return uint(keccak256(abi.encodePacked(block.prevrandao, block.timestamp, players))) */\n      swap1\n      pop\n        /* \"lottery smart_contract/lottery.sol\":519:662  function random() private view returns (uint) {... */\n      swap1\n      jump\t// out\n    tag_58:\n      dup3\n      dup1\n      sload\n      dup3\n      dup3\n      sstore\n      swap1\n      0x00\n      mstore\n      keccak256(0x00, 0x20)\n      swap1\n      dup2\n      add\n      swap3\n      dup3\n      iszero\n      tag_72\n      jumpi\n      swap2\n      0x20\n      mul\n      dup3\n      add\n    tag_73:\n      dup3\n      dup2\n      gt\n      iszero\n      tag_74\n      jumpi\n      dup3\n      mload\n      dup3\n      exp(0x0100, 0x00)\n      dup2\n      sload\n      dup2\n      0xffffffffffffffffffffffffffffffffffffffff\n      mul\n      not\n      and\n      swap1\n      dup4\n      0xffffffffffffffffffffffffffffffffffffffff\n      and\n      mul\n      or\n      swap1\n      sstore\n      pop\n      swap2\n      0x20\n      add\n      swap2\n      swap1\n      0x01\n      add\n      swap1\n      jump(tag_73)\n    tag_74:\n    tag_72:\n      pop\n      swap1\n      pop\n      tag_75\n      swap2\n      swap1\n      tag_76\n      jump\t// in\n    tag_75:\n      pop\n      swap1\n      jump\t// out\n    tag_76:\n    tag_77:\n      dup1\n      dup3\n      gt\n      iszero\n      tag_78\n      jumpi\n      0x00\n      dup2\n      0x00\n      swap1\n      sstore\n      pop\n      0x01\n      add\n      jump(tag_77)\n    tag_78:\n      pop\n      swap1\n      jump\t// out\n        /* \"#utility.yul\":7:133   */\n    tag_79:\n        /* \"#utility.yul\":44:51   */\n      0x00\n        /* \"#utility.yul\":84:126   */\n      0xffffffffffffffffffffffffffffffffffffffff\n        /* \"#utility.yul\":77:82   */\n      dup3\n        /* \"#utility.yul\":73:127   */\n      and\n        /* \"#utility.yul\":62:127   */\n      swap1\n      pop\n        /* \"#utility.yul\":7:133   */\n      swap2\n      swap1\n      pop\n      jump\t// out\n        /* \"#utility.yul\":139:235   */\n    tag_80:\n        /* \"#utility.yul\":176:183   */\n      0x00\n        /* \"#utility.yul\":205:229   */\n      tag_126\n        /* \"#utility.yul\":223:228   */\n      dup3\n        /* \"#utility.yul\":205:229   */\n      tag_79\n      jump\t// in\n    tag_126:\n        /* \"#utility.yul\":194:229   */\n      swap1\n      pop\n        /* \"#utility.yul\":139:235   */\n      swap2\n      swap1\n      pop\n      jump\t// out\n        /* \"#utility.yul\":241:359   */\n    tag_81:\n        /* \"#utility.yul\":328:352   */\n      tag_128\n        /* \"#utility.yul\":346:351   */\n      dup2\n        /* \"#utility.yul\":328:352   */\n      tag_80\n      jump\t// in\n    tag_128:\n        /* \"#utility.yul\":323:326   */\n      dup3\n        /* \"#utility.yul\":316:353   */\n      mstore\n        /* \"#utility.yul\":241:359   */\n      pop\n      pop\n      jump\t// out\n        /* \"#utility.yul\":365:587   */\n    tag_11:\n        /* \"#utility.yul\":458:462   */\n      0x00\n        /* \"#utility.yul\":496:498   */\n      0x20\n        /* \"#utility.yul\":485:494   */\n      dup3\n        /* \"#utility.yul\":481:499   */\n      add\n        /* \"#utility.yul\":473:499   */\n      swap1\n      pop\n        /* \"#utility.yul\":509:580   */\n      tag_130\n        /* \"#utility.yul\":577:578   */\n      0x00\n        /* \"#utility.yul\":566:575   */\n      dup4\n        /* \"#utility.yul\":562:579   */\n      add\n        /* \"#utility.yul\":553:559   */\n      dup5\n        /* \"#utility.yul\":509:580   */\n      tag_81\n      jump\t// in\n    tag_130:\n        /* \"#utility.yul\":365:587   */\n      swap3\n      swap2\n      pop\n      pop\n      jump\t// out\n        /* \"#utility.yul\":593:715   */\n    tag_82:\n        /* \"#utility.yul\":668:674   */\n      0x00\n        /* \"#utility.yul\":702:707   */\n      dup2\n        /* \"#utility.yul\":696:708   */\n      mload\n        /* \"#utility.yul\":686:708   */\n      swap1\n      pop\n        /* \"#utility.yul\":593:715   */\n      swap2\n      swap1\n      pop\n      jump\t// out\n        /* \"#utility.yul\":721:913   */\n    tag_83:\n        /* \"#utility.yul\":828:839   */\n      0x00\n        /* \"#utility.yul\":862:868   */\n      dup3\n        /* \"#utility.yul\":857:860   */\n      dup3\n        /* \"#utility.yul\":850:869   */\n      mstore\n        /* \"#utility.yul\":902:906   */\n      0x20\n        /* \"#utility.yul\":897:900   */\n      dup3\n        /* \"#utility.yul\":893:907   */\n      add\n        /* \"#utility.yul\":878:907   */\n      swap1\n      pop\n        /* \"#utility.yul\":721:913   */\n      swap3\n      swap2\n      pop\n      pop\n      jump\t// out\n        /* \"#utility.yul\":919:1059   */\n    tag_84:\n        /* \"#utility.yul\":994:998   */\n      0x00\n        /* \"#utility.yul\":1017:1020   */\n      dup2\n        /* \"#utility.yul\":1009:1020   */\n      swap1\n      pop\n        /* \"#utility.yul\":1047:1051   */\n      0x20\n        /* \"#utility.yul\":1042:1045   */\n      dup3\n        /* \"#utility.yul\":1038:1052   */\n      add\n        /* \"#utility.yul\":1030:1052   */\n      swap1\n      pop\n        /* \"#utility.yul\":919:1059   */\n      swap2\n      swap1\n      pop\n      jump\t// out\n        /* \"#utility.yul\":1065:1169   */\n    tag_85:\n        /* \"#utility.yul\":1110:1117   */\n      0x00\n        /* \"#utility.yul\":1139:1163   */\n      tag_135\n        /* \"#utility.yul\":1157:1162   */\n      dup3\n        /* \"#utility.yul\":1139:1163   */\n      tag_79\n      jump\t// in\n    tag_135:\n        /* \"#utility.yul\":1128:1163   */\n      swap1\n      pop\n        /* \"#utility.yul\":1065:1169   */\n      swap2\n      swap1\n      pop\n      jump\t// out\n        /* \"#utility.yul\":1175:1307   */\n    tag_86:\n        /* \"#utility.yul\":1268:1300   */\n      tag_137\n        /* \"#utility.yul\":1294:1299   */\n      dup2\n        /* \"#utility.yul\":1268:1300   */\n      tag_85\n      jump\t// in\n    tag_137:\n        /* \"#utility.yul\":1263:1266   */\n      dup3\n        /* \"#utility.yul\":1256:1301   */\n      mstore\n        /* \"#utility.yul\":1175:1307   */\n      pop\n      pop\n      jump\t// out\n        /* \"#utility.yul\":1313:1524   */\n    tag_87:\n        /* \"#utility.yul\":1398:1408   */\n      0x00\n        /* \"#utility.yul\":1419:1481   */\n      tag_139\n        /* \"#utility.yul\":1477:1480   */\n      dup4\n        /* \"#utility.yul\":1469:1475   */\n      dup4\n        /* \"#utility.yul\":1419:1481   */\n      tag_86\n      jump\t// in\n    tag_139:\n        /* \"#utility.yul\":1513:1517   */\n      0x20\n        /* \"#utility.yul\":1508:1511   */\n      dup4\n        /* \"#utility.yul\":1504:1518   */\n      add\n        /* \"#utility.yul\":1490:1518   */\n      swap1\n      pop\n        /* \"#utility.yul\":1313:1524   */\n      swap3\n      swap2\n      pop\n      pop\n      jump\t// out\n        /* \"#utility.yul\":1530:1651   */\n    tag_88:\n        /* \"#utility.yul\":1608:1612   */\n      0x00\n        /* \"#utility.yul\":1640:1644   */\n      0x20\n        /* \"#utility.yul\":1635:1638   */\n      dup3\n        /* \"#utility.yul\":1631:1645   */\n      add\n        /* \"#utility.yul\":1623:1645   */\n      swap1\n      pop\n        /* \"#utility.yul\":1530:1651   */\n      swap2\n      swap1\n      pop\n      jump\t// out\n        /* \"#utility.yul\":1703:2499   */\n    tag_89:\n        /* \"#utility.yul\":1838:1841   */\n      0x00\n        /* \"#utility.yul\":1867:1929   */\n      tag_142\n        /* \"#utility.yul\":1923:1928   */\n      dup3\n        /* \"#utility.yul\":1867:1929   */\n      tag_82\n      jump\t// in\n    tag_142:\n        /* \"#utility.yul\":1945:2039   */\n      tag_143\n        /* \"#utility.yul\":2032:2038   */\n      dup2\n        /* \"#utility.yul\":2027:2030   */\n      dup6\n        /* \"#utility.yul\":1945:2039   */\n      tag_83\n      jump\t// in\n    tag_143:\n        /* \"#utility.yul\":1938:2039   */\n      swap4\n      pop\n        /* \"#utility.yul\":2063:2127   */\n      tag_144\n        /* \"#utility.yul\":2121:2126   */\n      dup4\n        /* \"#utility.yul\":2063:2127   */\n      tag_84\n      jump\t// in\n    tag_144:\n        /* \"#utility.yul\":2150:2157   */\n      dup1\n        /* \"#utility.yul\":2181:2182   */\n      0x00\n        /* \"#utility.yul\":2166:2474   */\n    tag_145:\n        /* \"#utility.yul\":2191:2197   */\n      dup4\n        /* \"#utility.yul\":2188:2189   */\n      dup2\n        /* \"#utility.yul\":2185:2198   */\n      lt\n        /* \"#utility.yul\":2166:2474   */\n      iszero\n      tag_147\n      jumpi\n        /* \"#utility.yul\":2267:2273   */\n      dup2\n        /* \"#utility.yul\":2261:2274   */\n      mload\n        /* \"#utility.yul\":2294:2373   */\n      tag_148\n        /* \"#utility.yul\":2369:2372   */\n      dup9\n        /* \"#utility.yul\":2354:2367   */\n      dup3\n        /* \"#utility.yul\":2294:2373   */\n      tag_87\n      jump\t// in\n    tag_148:\n        /* \"#utility.yul\":2287:2373   */\n      swap8\n      pop\n        /* \"#utility.yul\":2396:2464   */\n      tag_149\n        /* \"#utility.yul\":2457:2463   */\n      dup4\n        /* \"#utility.yul\":2396:2464   */\n      tag_88\n      jump\t// in\n    tag_149:\n        /* \"#utility.yul\":2386:2464   */\n      swap3\n      pop\n        /* \"#utility.yul\":2226:2474   */\n      pop\n        /* \"#utility.yul\":2213:2214   */\n      0x01\n        /* \"#utility.yul\":2210:2211   */\n      dup2\n        /* \"#utility.yul\":2206:2215   */\n      add\n        /* \"#utility.yul\":2201:2215   */\n      swap1\n      pop\n        /* \"#utility.yul\":2166:2474   */\n      jump(tag_145)\n    tag_147:\n        /* \"#utility.yul\":2170:2184   */\n      pop\n        /* \"#utility.yul\":2490:2493   */\n      dup6\n        /* \"#utility.yul\":2483:2493   */\n      swap4\n      pop\n        /* \"#utility.yul\":1843:2499   */\n      pop\n      pop\n      pop\n        /* \"#utility.yul\":1703:2499   */\n      swap3\n      swap2\n      pop\n      pop\n      jump\t// out\n        /* \"#utility.yul\":2505:2910   */\n    tag_19:\n        /* \"#utility.yul\":2664:2668   */\n      0x00\n        /* \"#utility.yul\":2702:2704   */\n      0x20\n        /* \"#utility.yul\":2691:2700   */\n      dup3\n        /* \"#utility.yul\":2687:2705   */\n      add\n        /* \"#utility.yul\":2679:2705   */\n      swap1\n      pop\n        /* \"#utility.yul\":2751:2760   */\n      dup2\n        /* \"#utility.yul\":2745:2749   */\n      dup2\n        /* \"#utility.yul\":2741:2761   */\n      sub\n        /* \"#utility.yul\":2737:2738   */\n      0x00\n        /* \"#utility.yul\":2726:2735   */\n      dup4\n        /* \"#utility.yul\":2722:2739   */\n      add\n        /* \"#utility.yul\":2715:2762   */\n      mstore\n        /* \"#utility.yul\":2779:2903   */\n      tag_151\n        /* \"#utility.yul\":2898:2902   */\n      dup2\n        /* \"#utility.yul\":2889:2895   */\n      dup5\n        /* \"#utility.yul\":2779:2903   */\n      tag_89\n      jump\t// in\n    tag_151:\n        /* \"#utility.yul\":2771:2903   */\n      swap1\n      pop\n        /* \"#utility.yul\":2505:2910   */\n      swap3\n      swap2\n      pop\n      pop\n      jump\t// out\n        /* \"#utility.yul\":2997:3114   */\n    tag_91:\n        /* \"#utility.yul\":3106:3107   */\n      0x00\n        /* \"#utility.yul\":3103:3104   */\n      dup1\n        /* \"#utility.yul\":3096:3108   */\n      revert\n        /* \"#utility.yul\":3243:3320   */\n    tag_93:\n        /* \"#utility.yul\":3280:3287   */\n      0x00\n        /* \"#utility.yul\":3309:3314   */\n      dup2\n        /* \"#utility.yul\":3298:3314   */\n      swap1\n      pop\n        /* \"#utility.yul\":3243:3320   */\n      swap2\n      swap1\n      pop\n      jump\t// out\n        /* \"#utility.yul\":3326:3448   */\n    tag_94:\n        /* \"#utility.yul\":3399:3423   */\n      tag_157\n        /* \"#utility.yul\":3417:3422   */\n      dup2\n        /* \"#utility.yul\":3399:3423   */\n      tag_93\n      jump\t// in\n    tag_157:\n        /* \"#utility.yul\":3392:3397   */\n      dup2\n        /* \"#utility.yul\":3389:3424   */\n      eq\n        /* \"#utility.yul\":3379:3442   */\n      tag_158\n      jumpi\n        /* \"#utility.yul\":3438:3439   */\n      0x00\n        /* \"#utility.yul\":3435:3436   */\n      dup1\n        /* \"#utility.yul\":3428:3440   */\n      revert\n        /* \"#utility.yul\":3379:3442   */\n    tag_158:\n        /* \"#utility.yul\":3326:3448   */\n      pop\n      jump\t// out\n        /* \"#utility.yul\":3454:3593   */\n    tag_95:\n        /* \"#utility.yul\":3500:3505   */\n      0x00\n        /* \"#utility.yul\":3538:3544   */\n      dup2\n        /* \"#utility.yul\":3525:3545   */\n      calldataload\n        /* \"#utility.yul\":3516:3545   */\n      swap1\n      pop\n        /* \"#utility.yul\":3554:3587   */\n      tag_160\n        /* \"#utility.yul\":3581:3586   */\n      dup2\n        /* \"#utility.yul\":3554:3587   */\n      tag_94\n      jump\t// in\n    tag_160:\n        /* \"#utility.yul\":3454:3593   */\n      swap3\n      swap2\n      pop\n      pop\n      jump\t// out\n        /* \"#utility.yul\":3599:3928   */\n    tag_25:\n        /* \"#utility.yul\":3658:3664   */\n      0x00\n        /* \"#utility.yul\":3707:3709   */\n      0x20\n        /* \"#utility.yul\":3695:3704   */\n      dup3\n        /* \"#utility.yul\":3686:3693   */\n      dup5\n        /* \"#utility.yul\":3682:3705   */\n      sub\n        /* \"#utility.yul\":3678:3710   */\n      slt\n        /* \"#utility.yul\":3675:3794   */\n      iszero\n      tag_162\n      jumpi\n        /* \"#utility.yul\":3713:3792   */\n      tag_163\n      tag_91\n      jump\t// in\n    tag_163:\n        /* \"#utility.yul\":3675:3794   */\n    tag_162:\n        /* \"#utility.yul\":3833:3834   */\n      0x00\n        /* \"#utility.yul\":3858:3911   */\n      tag_164\n        /* \"#utility.yul\":3903:3910   */\n      dup5\n        /* \"#utility.yul\":3894:3900   */\n      dup3\n        /* \"#utility.yul\":3883:3892   */\n      dup6\n        /* \"#utility.yul\":3879:3901   */\n      add\n        /* \"#utility.yul\":3858:3911   */\n      tag_95\n      jump\t// in\n    tag_164:\n        /* \"#utility.yul\":3848:3911   */\n      swap2\n      pop\n        /* \"#utility.yul\":3804:3921   */\n      pop\n        /* \"#utility.yul\":3599:3928   */\n      swap3\n      swap2\n      pop\n      pop\n      jump\t// out\n        /* \"#utility.yul\":3934:4076   */\n    tag_96:\n        /* \"#utility.yul\":4037:4069   */\n      tag_166\n        /* \"#utility.yul\":4063:4068   */\n      dup2\n        /* \"#utility.yul\":4037:4069   */\n      tag_85\n      jump\t// in\n    tag_166:\n        /* \"#utility.yul\":4032:4035   */\n      dup3\n        /* \"#utility.yul\":4025:4070   */\n      mstore\n        /* \"#utility.yul\":3934:4076   */\n      pop\n      pop\n      jump\t// out\n        /* \"#utility.yul\":4082:4336   */\n    tag_28:\n        /* \"#utility.yul\":4191:4195   */\n      0x00\n        /* \"#utility.yul\":4229:4231   */\n      0x20\n        /* \"#utility.yul\":4218:4227   */\n      dup3\n        /* \"#utility.yul\":4214:4232   */\n      add\n        /* \"#utility.yul\":4206:4232   */\n      swap1\n      pop\n        /* \"#utility.yul\":4242:4329   */\n      tag_168\n        /* \"#utility.yul\":4326:4327   */\n      0x00\n        /* \"#utility.yul\":4315:4324   */\n      dup4\n        /* \"#utility.yul\":4311:4328   */\n      add\n        /* \"#utility.yul\":4302:4308   */\n      dup5\n        /* \"#utility.yul\":4242:4329   */\n      tag_96\n      jump\t// in\n    tag_168:\n        /* \"#utility.yul\":4082:4336   */\n      swap3\n      swap2\n      pop\n      pop\n      jump\t// out\n        /* \"#utility.yul\":4342:4511   */\n    tag_97:\n        /* \"#utility.yul\":4426:4437   */\n      0x00\n        /* \"#utility.yul\":4460:4466   */\n      dup3\n        /* \"#utility.yul\":4455:4458   */\n      dup3\n        /* \"#utility.yul\":4448:4467   */\n      mstore\n        /* \"#utility.yul\":4500:4504   */\n      0x20\n        /* \"#utility.yul\":4495:4498   */\n      dup3\n        /* \"#utility.yul\":4491:4505   */\n      add\n        /* \"#utility.yul\":4476:4505   */\n      swap1\n      pop\n        /* \"#utility.yul\":4342:4511   */\n      swap3\n      swap2\n      pop\n      pop\n      jump\t// out\n        /* \"#utility.yul\":4517:4682   */\n    tag_98:\n        /* \"#utility.yul\":4657:4674   */\n      0x4e6f7420746865206d616e616765720000000000000000000000000000000000\n        /* \"#utility.yul\":4653:4654   */\n      0x00\n        /* \"#utility.yul\":4645:4651   */\n      dup3\n        /* \"#utility.yul\":4641:4655   */\n      add\n        /* \"#utility.yul\":4634:4675   */\n      mstore\n        /* \"#utility.yul\":4517:4682   */\n      pop\n      jump\t// out\n        /* \"#utility.yul\":4688:5054   */\n    tag_99:\n        /* \"#utility.yul\":4830:4833   */\n      0x00\n        /* \"#utility.yul\":4851:4918   */\n      tag_172\n        /* \"#utility.yul\":4915:4917   */\n      0x0f\n        /* \"#utility.yul\":4910:4913   */\n      dup4\n        /* \"#utility.yul\":4851:4918   */\n      tag_97\n      jump\t// in\n    tag_172:\n        /* \"#utility.yul\":4844:4918   */\n      swap2\n      pop\n        /* \"#utility.yul\":4927:5020   */\n      tag_173\n        /* \"#utility.yul\":5016:5019   */\n      dup3\n        /* \"#utility.yul\":4927:5020   */\n      tag_98\n      jump\t// in\n    tag_173:\n        /* \"#utility.yul\":5045:5047   */\n      0x20\n        /* \"#utility.yul\":5040:5043   */\n      dup3\n        /* \"#utility.yul\":5036:5048   */\n      add\n        /* \"#utility.yul\":5029:5048   */\n      swap1\n      pop\n        /* \"#utility.yul\":4688:5054   */\n      swap2\n      swap1\n      pop\n      jump\t// out\n        /* \"#utility.yul\":5060:5479   */\n    tag_32:\n        /* \"#utility.yul\":5226:5230   */\n      0x00\n        /* \"#utility.yul\":5264:5266   */\n      0x20\n        /* \"#utility.yul\":5253:5262   */\n      dup3\n        /* \"#utility.yul\":5249:5267   */\n      add\n        /* \"#utility.yul\":5241:5267   */\n      swap1\n      pop\n        /* \"#utility.yul\":5313:5322   */\n      dup2\n        /* \"#utility.yul\":5307:5311   */\n      dup2\n        /* \"#utility.yul\":5303:5323   */\n      sub\n        /* \"#utility.yul\":5299:5300   */\n      0x00\n        /* \"#utility.yul\":5288:5297   */\n      dup4\n        /* \"#utility.yul\":5284:5301   */\n      add\n        /* \"#utility.yul\":5277:5324   */\n      mstore\n        /* \"#utility.yul\":5341:5472   */\n      tag_175\n        /* \"#utility.yul\":5467:5471   */\n      dup2\n        /* \"#utility.yul\":5341:5472   */\n      tag_99\n      jump\t// in\n    tag_175:\n        /* \"#utility.yul\":5333:5472   */\n      swap1\n      pop\n        /* \"#utility.yul\":5060:5479   */\n      swap2\n      swap1\n      pop\n      jump\t// out\n        /* \"#utility.yul\":5485:5660   */\n    tag_100:\n        /* \"#utility.yul\":5625:5652   */\n      0x4e6f20706c617965727320696e20746865206c6f747465727900000000000000\n        /* \"#utility.yul\":5621:5622   */\n      0x00\n        /* \"#utility.yul\":5613:5619   */\n      dup3\n        /* \"#utility.yul\":5609:5623   */\n      add\n        /* \"#utility.yul\":5602:5653   */\n      mstore\n        /* \"#utility.yul\":5485:5660   */\n      pop\n      jump\t// out\n        /* \"#utility.yul\":5666:6032   */\n    tag_101:\n        /* \"#utility.yul\":5808:5811   */\n      0x00\n        /* \"#utility.yul\":5829:5896   */\n      tag_178\n        /* \"#utility.yul\":5893:5895   */\n      0x19\n        /* \"#utility.yul\":5888:5891   */\n      dup4\n        /* \"#utility.yul\":5829:5896   */\n      tag_97\n      jump\t// in\n    tag_178:\n        /* \"#utility.yul\":5822:5896   */\n      swap2\n      pop\n        /* \"#utility.yul\":5905:5998   */\n      tag_179\n        /* \"#utility.yul\":5994:5997   */\n      dup3\n        /* \"#utility.yul\":5905:5998   */\n      tag_100\n      jump\t// in\n    tag_179:\n        /* \"#utility.yul\":6023:6025   */\n      0x20\n        /* \"#utility.yul\":6018:6021   */\n      dup3\n        /* \"#utility.yul\":6014:6026   */\n      add\n        /* \"#utility.yul\":6007:6026   */\n      swap1\n      pop\n        /* \"#utility.yul\":5666:6032   */\n      swap2\n      swap1\n      pop\n      jump\t// out\n        /* \"#utility.yul\":6038:6457   */\n    tag_36:\n        /* \"#utility.yul\":6204:6208   */\n      0x00\n        /* \"#utility.yul\":6242:6244   */\n      0x20\n        /* \"#utility.yul\":6231:6240   */\n      dup3\n        /* \"#utility.yul\":6227:6245   */\n      add\n        /* \"#utility.yul\":6219:6245   */\n      swap1\n      pop\n        /* \"#utility.yul\":6291:6300   */\n      dup2\n        /* \"#utility.yul\":6285:6289   */\n      dup2\n        /* \"#utility.yul\":6281:6301   */\n      sub\n        /* \"#utility.yul\":6277:6278   */\n      0x00\n        /* \"#utility.yul\":6266:6275   */\n      dup4\n        /* \"#utility.yul\":6262:6279   */\n      add\n        /* \"#utility.yul\":6255:6302   */\n      mstore\n        /* \"#utility.yul\":6319:6450   */\n      tag_181\n        /* \"#utility.yul\":6445:6449   */\n      dup2\n        /* \"#utility.yul\":6319:6450   */\n      tag_101\n      jump\t// in\n    tag_181:\n        /* \"#utility.yul\":6311:6450   */\n      swap1\n      pop\n        /* \"#utility.yul\":6038:6457   */\n      swap2\n      swap1\n      pop\n      jump\t// out\n        /* \"#utility.yul\":6463:6643   */\n    tag_102:\n        /* \"#utility.yul\":6511:6588   */\n      0x4e487b7100000000000000000000000000000000000000000000000000000000\n        /* \"#utility.yul\":6508:6509   */\n      0x00\n        /* \"#utility.yul\":6501:6589   */\n      mstore\n        /* \"#utility.yul\":6608:6612   */\n      0x12\n        /* \"#utility.yul\":6605:6606   */\n      0x04\n        /* \"#utility.yul\":6598:6613   */\n      mstore\n        /* \"#utility.yul\":6632:6636   */\n      0x24\n        /* \"#utility.yul\":6629:6630   */\n      0x00\n        /* \"#utility.yul\":6622:6637   */\n      revert\n        /* \"#utility.yul\":6649:6825   */\n    tag_40:\n        /* \"#utility.yul\":6681:6682   */\n      0x00\n        /* \"#utility.yul\":6698:6718   */\n      tag_184\n        /* \"#utility.yul\":6716:6717   */\n      dup3\n        /* \"#utility.yul\":6698:6718   */\n      tag_93\n      jump\t// in\n    tag_184:\n        /* \"#utility.yul\":6693:6718   */\n      swap2\n      pop\n        /* \"#utility.yul\":6732:6752   */\n      tag_185\n        /* \"#utility.yul\":6750:6751   */\n      dup4\n        /* \"#utility.yul\":6732:6752   */\n      tag_93\n      jump\t// in\n    tag_185:\n        /* \"#utility.yul\":6727:6752   */\n      swap3\n      pop\n        /* \"#utility.yul\":6771:6772   */\n      dup3\n        /* \"#utility.yul\":6761:6796   */\n      tag_186\n      jumpi\n        /* \"#utility.yul\":6776:6794   */\n      tag_187\n      tag_102\n      jump\t// in\n    tag_187:\n        /* \"#utility.yul\":6761:6796   */\n    tag_186:\n        /* \"#utility.yul\":6817:6818   */\n      dup3\n        /* \"#utility.yul\":6814:6815   */\n      dup3\n        /* \"#utility.yul\":6810:6819   */\n      mod\n        /* \"#utility.yul\":6805:6819   */\n      swap1\n      pop\n        /* \"#utility.yul\":6649:6825   */\n      swap3\n      swap2\n      pop\n      pop\n      jump\t// out\n        /* \"#utility.yul\":6831:7011   */\n    tag_43:\n        /* \"#utility.yul\":6879:6956   */\n      0x4e487b7100000000000000000000000000000000000000000000000000000000\n        /* \"#utility.yul\":6876:6877   */\n      0x00\n        /* \"#utility.yul\":6869:6957   */\n      mstore\n        /* \"#utility.yul\":6976:6980   */\n      0x32\n        /* \"#utility.yul\":6973:6974   */\n      0x04\n        /* \"#utility.yul\":6966:6981   */\n      mstore\n        /* \"#utility.yul\":7000:7004   */\n      0x24\n        /* \"#utility.yul\":6997:6998   */\n      0x00\n        /* \"#utility.yul\":6990:7005   */\n      revert\n        /* \"#utility.yul\":7017:7164   */\n    tag_103:\n        /* \"#utility.yul\":7118:7129   */\n      0x00\n        /* \"#utility.yul\":7155:7158   */\n      dup2\n        /* \"#utility.yul\":7140:7158   */\n      swap1\n      pop\n        /* \"#utility.yul\":7017:7164   */\n      swap3\n      swap2\n      pop\n      pop\n      jump\t// out\n        /* \"#utility.yul\":7170:7284   */\n    tag_104:\n      pop\n      jump\t// out\n        /* \"#utility.yul\":7290:7688   */\n    tag_105:\n        /* \"#utility.yul\":7449:7452   */\n      0x00\n        /* \"#utility.yul\":7470:7553   */\n      tag_192\n        /* \"#utility.yul\":7551:7552   */\n      0x00\n        /* \"#utility.yul\":7546:7549   */\n      dup4\n        /* \"#utility.yul\":7470:7553   */\n      tag_103\n      jump\t// in\n    tag_192:\n        /* \"#utility.yul\":7463:7553   */\n      swap2\n      pop\n        /* \"#utility.yul\":7562:7655   */\n      tag_193\n        /* \"#utility.yul\":7651:7654   */\n      dup3\n        /* \"#utility.yul\":7562:7655   */\n      tag_104\n      jump\t// in\n    tag_193:\n        /* \"#utility.yul\":7680:7681   */\n      0x00\n        /* \"#utility.yul\":7675:7678   */\n      dup3\n        /* \"#utility.yul\":7671:7682   */\n      add\n        /* \"#utility.yul\":7664:7682   */\n      swap1\n      pop\n        /* \"#utility.yul\":7290:7688   */\n      swap2\n      swap1\n      pop\n      jump\t// out\n        /* \"#utility.yul\":7694:8073   */\n    tag_46:\n        /* \"#utility.yul\":7878:7881   */\n      0x00\n        /* \"#utility.yul\":7900:8047   */\n      tag_195\n        /* \"#utility.yul\":8043:8046   */\n      dup3\n        /* \"#utility.yul\":7900:8047   */\n      tag_105\n      jump\t// in\n    tag_195:\n        /* \"#utility.yul\":7893:8047   */\n      swap2\n      pop\n        /* \"#utility.yul\":8064:8067   */\n      dup2\n        /* \"#utility.yul\":8057:8067   */\n      swap1\n      pop\n        /* \"#utility.yul\":7694:8073   */\n      swap2\n      swap1\n      pop\n      jump\t// out\n        /* \"#utility.yul\":8079:8244   */\n    tag_106:\n        /* \"#utility.yul\":8219:8236   */\n      0x5472616e73666572206661696c65640000000000000000000000000000000000\n        /* \"#utility.yul\":8215:8216   */\n      0x00\n        /* \"#utility.yul\":8207:8213   */\n      dup3\n        /* \"#utility.yul\":8203:8217   */\n      add\n        /* \"#utility.yul\":8196:8237   */\n      mstore\n        /* \"#utility.yul\":8079:8244   */\n      pop\n      jump\t// out\n        /* \"#utility.yul\":8250:8616   */\n    tag_107:\n        /* \"#utility.yul\":8392:8395   */\n      0x00\n        /* \"#utility.yul\":8413:8480   */\n      tag_198\n        /* \"#utility.yul\":8477:8479   */\n      0x0f\n        /* \"#utility.yul\":8472:8475   */\n      dup4\n        /* \"#utility.yul\":8413:8480   */\n      tag_97\n      jump\t// in\n    tag_198:\n        /* \"#utility.yul\":8406:8480   */\n      swap2\n      pop\n        /* \"#utility.yul\":8489:8582   */\n      tag_199\n        /* \"#utility.yul\":8578:8581   */\n      dup3\n        /* \"#utility.yul\":8489:8582   */\n      tag_106\n      jump\t// in\n    tag_199:\n        /* \"#utility.yul\":8607:8609   */\n      0x20\n        /* \"#utility.yul\":8602:8605   */\n      dup3\n        /* \"#utility.yul\":8598:8610   */\n      add\n        /* \"#utility.yul\":8591:8610   */\n      swap1\n      pop\n        /* \"#utility.yul\":8250:8616   */\n      swap2\n      swap1\n      pop\n      jump\t// out\n        /* \"#utility.yul\":8622:9041   */\n    tag_52:\n        /* \"#utility.yul\":8788:8792   */\n      0x00\n        /* \"#utility.yul\":8826:8828   */\n      0x20\n        /* \"#utility.yul\":8815:8824   */\n      dup3\n        /* \"#utility.yul\":8811:8829   */\n      add\n        /* \"#utility.yul\":8803:8829   */\n      swap1\n      pop\n        /* \"#utility.yul\":8875:8884   */\n      dup2\n        /* \"#utility.yul\":8869:8873   */\n      dup2\n        /* \"#utility.yul\":8865:8885   */\n      sub\n        /* \"#utility.yul\":8861:8862   */\n      0x00\n        /* \"#utility.yul\":8850:8859   */\n      dup4\n        /* \"#utility.yul\":8846:8863   */\n      add\n        /* \"#utility.yul\":8839:8886   */\n      mstore\n        /* \"#utility.yul\":8903:9034   */\n      tag_201\n        /* \"#utility.yul\":9029:9033   */\n      dup2\n        /* \"#utility.yul\":8903:9034   */\n      tag_107\n      jump\t// in\n    tag_201:\n        /* \"#utility.yul\":8895:9034   */\n      swap1\n      pop\n        /* \"#utility.yul\":8622:9041   */\n      swap2\n      swap1\n      pop\n      jump\t// out\n        /* \"#utility.yul\":9047:9227   */\n    tag_55:\n        /* \"#utility.yul\":9095:9172   */\n      0x4e487b7100000000000000000000000000000000000000000000000000000000\n        /* \"#utility.yul\":9092:9093   */\n      0x00\n        /* \"#utility.yul\":9085:9173   */\n      mstore\n        /* \"#utility.yul\":9192:9196   */\n      0x41\n        /* \"#utility.yul\":9189:9190   */\n      0x04\n        /* \"#utility.yul\":9182:9197   */\n      mstore\n        /* \"#utility.yul\":9216:9220   */\n      0x24\n        /* \"#utility.yul\":9213:9214   */\n      0x00\n        /* \"#utility.yul\":9206:9221   */\n      revert\n        /* \"#utility.yul\":9233:9463   */\n    tag_108:\n        /* \"#utility.yul\":9373:9407   */\n      0x54686520616d6f756e742073686f756c64206265206772656174657220746861\n        /* \"#utility.yul\":9369:9370   */\n      0x00\n        /* \"#utility.yul\":9361:9367   */\n      dup3\n        /* \"#utility.yul\":9357:9371   */\n      add\n        /* \"#utility.yul\":9350:9408   */\n      mstore\n        /* \"#utility.yul\":9442:9455   */\n      0x6e202e3031206574686572000000000000000000000000000000000000000000\n        /* \"#utility.yul\":9437:9439   */\n      0x20\n        /* \"#utility.yul\":9429:9435   */\n      dup3\n        /* \"#utility.yul\":9425:9440   */\n      add\n        /* \"#utility.yul\":9418:9456   */\n      mstore\n        /* \"#utility.yul\":9233:9463   */\n      pop\n      jump\t// out\n        /* \"#utility.yul\":9469:9835   */\n    tag_109:\n        /* \"#utility.yul\":9611:9614   */\n      0x00\n        /* \"#utility.yul\":9632:9699   */\n      tag_205\n        /* \"#utility.yul\":9696:9698   */\n      0x2b\n        /* \"#utility.yul\":9691:9694   */\n      dup4\n        /* \"#utility.yul\":9632:9699   */\n      tag_97\n      jump\t// in\n    tag_205:\n        /* \"#utility.yul\":9625:9699   */\n      swap2\n      pop\n        /* \"#utility.yul\":9708:9801   */\n      tag_206\n        /* \"#utility.yul\":9797:9800   */\n      dup3\n        /* \"#utility.yul\":9708:9801   */\n      tag_108\n      jump\t// in\n    tag_206:\n        /* \"#utility.yul\":9826:9828   */\n      0x40\n        /* \"#utility.yul\":9821:9824   */\n      dup3\n        /* \"#utility.yul\":9817:9829   */\n      add\n        /* \"#utility.yul\":9810:9829   */\n      swap1\n      pop\n        /* \"#utility.yul\":9469:9835   */\n      swap2\n      swap1\n      pop\n      jump\t// out\n        /* \"#utility.yul\":9841:10260   */\n    tag_65:\n        /* \"#utility.yul\":10007:10011   */\n      0x00\n        /* \"#utility.yul\":10045:10047   */\n      0x20\n        /* \"#utility.yul\":10034:10043   */\n      dup3\n        /* \"#utility.yul\":10030:10048   */\n      add\n        /* \"#utility.yul\":10022:10048   */\n      swap1\n      pop\n        /* \"#utility.yul\":10094:10103   */\n      dup2\n        /* \"#utility.yul\":10088:10092   */\n      dup2\n        /* \"#utility.yul\":10084:10104   */\n      sub\n        /* \"#utility.yul\":10080:10081   */\n      0x00\n        /* \"#utility.yul\":10069:10078   */\n      dup4\n        /* \"#utility.yul\":10065:10082   */\n      add\n        /* \"#utility.yul\":10058:10105   */\n      mstore\n        /* \"#utility.yul\":10122:10253   */\n      tag_208\n        /* \"#utility.yul\":10248:10252   */\n      dup2\n        /* \"#utility.yul\":10122:10253   */\n      tag_109\n      jump\t// in\n    tag_208:\n        /* \"#utility.yul\":10114:10253   */\n      swap1\n      pop\n        /* \"#utility.yul\":9841:10260   */\n      swap2\n      swap1\n      pop\n      jump\t// out\n        /* \"#utility.yul\":10266:10345   */\n    tag_110:\n        /* \"#utility.yul\":10305:10312   */\n      0x00\n        /* \"#utility.yul\":10334:10339   */\n      dup2\n        /* \"#utility.yul\":10323:10339   */\n      swap1\n      pop\n        /* \"#utility.yul\":10266:10345   */\n      swap2\n      swap1\n      pop\n      jump\t// out\n        /* \"#utility.yul\":10351:10508   */\n    tag_111:\n        /* \"#utility.yul\":10456:10501   */\n      tag_211\n        /* \"#utility.yul\":10476:10500   */\n      tag_212\n        /* \"#utility.yul\":10494:10499   */\n      dup3\n        /* \"#utility.yul\":10476:10500   */\n      tag_93\n      jump\t// in\n    tag_212:\n        /* \"#utility.yul\":10456:10501   */\n      tag_110\n      jump\t// in\n    tag_211:\n        /* \"#utility.yul\":10451:10454   */\n      dup3\n        /* \"#utility.yul\":10444:10502   */\n      mstore\n        /* \"#utility.yul\":10351:10508   */\n      pop\n      pop\n      jump\t// out\n        /* \"#utility.yul\":10514:10633   */\n    tag_112:\n        /* \"#utility.yul\":10586:10592   */\n      0x00\n        /* \"#utility.yul\":10620:10625   */\n      dup2\n        /* \"#utility.yul\":10614:10626   */\n      sload\n        /* \"#utility.yul\":10604:10626   */\n      swap1\n      pop\n        /* \"#utility.yul\":10514:10633   */\n      swap2\n      swap1\n      pop\n      jump\t// out\n        /* \"#utility.yul\":10639:10810   */\n    tag_113:\n        /* \"#utility.yul\":10764:10775   */\n      0x00\n        /* \"#utility.yul\":10801:10804   */\n      dup2\n        /* \"#utility.yul\":10786:10804   */\n      swap1\n      pop\n        /* \"#utility.yul\":10639:10810   */\n      swap3\n      swap2\n      pop\n      pop\n      jump\t// out\n        /* \"#utility.yul\":10816:10980   */\n    tag_114:\n        /* \"#utility.yul\":10888:10892   */\n      0x00\n        /* \"#utility.yul\":10911:10914   */\n      dup2\n        /* \"#utility.yul\":10903:10914   */\n      swap1\n      pop\n        /* \"#utility.yul\":10934:10937   */\n      dup2\n        /* \"#utility.yul\":10931:10932   */\n      0x00\n        /* \"#utility.yul\":10924:10938   */\n      mstore\n        /* \"#utility.yul\":10968:10972   */\n      0x20\n        /* \"#utility.yul\":10965:10966   */\n      0x00\n        /* \"#utility.yul\":10955:10973   */\n      keccak256\n        /* \"#utility.yul\":10947:10973   */\n      swap1\n      pop\n        /* \"#utility.yul\":10816:10980   */\n      swap2\n      swap1\n      pop\n      jump\t// out\n        /* \"#utility.yul\":10986:11126   */\n    tag_115:\n        /* \"#utility.yul\":11087:11119   */\n      tag_217\n        /* \"#utility.yul\":11113:11118   */\n      dup2\n        /* \"#utility.yul\":11087:11119   */\n      tag_85\n      jump\t// in\n    tag_217:\n        /* \"#utility.yul\":11082:11085   */\n      dup3\n        /* \"#utility.yul\":11075:11120   */\n      mstore\n        /* \"#utility.yul\":10986:11126   */\n      pop\n      pop\n      jump\t// out\n        /* \"#utility.yul\":11132:11359   */\n    tag_116:\n        /* \"#utility.yul\":11225:11235   */\n      0x00\n        /* \"#utility.yul\":11246:11316   */\n      tag_219\n        /* \"#utility.yul\":11312:11315   */\n      dup4\n        /* \"#utility.yul\":11304:11310   */\n      dup4\n        /* \"#utility.yul\":11246:11316   */\n      tag_115\n      jump\t// in\n    tag_219:\n        /* \"#utility.yul\":11348:11352   */\n      0x20\n        /* \"#utility.yul\":11343:11346   */\n      dup4\n        /* \"#utility.yul\":11339:11353   */\n      add\n        /* \"#utility.yul\":11325:11353   */\n      swap1\n      pop\n        /* \"#utility.yul\":11132:11359   */\n      swap3\n      swap2\n      pop\n      pop\n      jump\t// out\n        /* \"#utility.yul\":11365:11467   */\n    tag_117:\n        /* \"#utility.yul\":11407:11415   */\n      0x00\n        /* \"#utility.yul\":11454:11459   */\n      dup2\n        /* \"#utility.yul\":11451:11452   */\n      0x00\n        /* \"#utility.yul\":11447:11460   */\n      shr\n        /* \"#utility.yul\":11426:11460   */\n      swap1\n      pop\n        /* \"#utility.yul\":11365:11467   */\n      swap2\n      swap1\n      pop\n      jump\t// out\n        /* \"#utility.yul\":11473:11620   */\n    tag_118:\n        /* \"#utility.yul\":11531:11538   */\n      0x00\n        /* \"#utility.yul\":11571:11613   */\n      0xffffffffffffffffffffffffffffffffffffffff\n        /* \"#utility.yul\":11564:11569   */\n      dup3\n        /* \"#utility.yul\":11560:11614   */\n      and\n        /* \"#utility.yul\":11549:11614   */\n      swap1\n      pop\n        /* \"#utility.yul\":11473:11620   */\n      swap2\n      swap1\n      pop\n      jump\t// out\n        /* \"#utility.yul\":11626:11808   */\n    tag_119:\n        /* \"#utility.yul\":11703:11708   */\n      0x00\n        /* \"#utility.yul\":11728:11802   */\n      tag_223\n        /* \"#utility.yul\":11767:11801   */\n      tag_224\n        /* \"#utility.yul\":11790:11800   */\n      dup4\n        /* \"#utility.yul\":11767:11801   */\n      tag_117\n      jump\t// in\n    tag_224:\n        /* \"#utility.yul\":11728:11802   */\n      tag_118\n      jump\t// in\n    tag_223:\n        /* \"#utility.yul\":11719:11802   */\n      swap1\n      pop\n        /* \"#utility.yul\":11626:11808   */\n      swap2\n      swap1\n      pop\n      jump\t// out\n        /* \"#utility.yul\":11814:11974   */\n    tag_120:\n        /* \"#utility.yul\":11877:11882   */\n      0x00\n        /* \"#utility.yul\":11902:11967   */\n      tag_226\n        /* \"#utility.yul\":11961:11965   */\n      dup3\n        /* \"#utility.yul\":11955:11966   */\n      sload\n        /* \"#utility.yul\":11902:11967   */\n      tag_119\n      jump\t// in\n    tag_226:\n        /* \"#utility.yul\":11893:11967   */\n      swap1\n      pop\n        /* \"#utility.yul\":11814:11974   */\n      swap2\n      swap1\n      pop\n      jump\t// out\n        /* \"#utility.yul\":11980:12098   */\n    tag_121:\n        /* \"#utility.yul\":12055:12059   */\n      0x00\n        /* \"#utility.yul\":12087:12091   */\n      0x01\n        /* \"#utility.yul\":12082:12085   */\n      dup3\n        /* \"#utility.yul\":12078:12092   */\n      add\n        /* \"#utility.yul\":12070:12092   */\n      swap1\n      pop\n        /* \"#utility.yul\":11980:12098   */\n      swap2\n      swap1\n      pop\n      jump\t// out\n        /* \"#utility.yul\":12150:13017   */\n    tag_122:\n        /* \"#utility.yul\":12300:12303   */\n      0x00\n        /* \"#utility.yul\":12329:12388   */\n      tag_229\n        /* \"#utility.yul\":12382:12387   */\n      dup3\n        /* \"#utility.yul\":12329:12388   */\n      tag_112\n      jump\t// in\n    tag_229:\n        /* \"#utility.yul\":12404:12516   */\n      tag_230\n        /* \"#utility.yul\":12509:12515   */\n      dup2\n        /* \"#utility.yul\":12504:12507   */\n      dup6\n        /* \"#utility.yul\":12404:12516   */\n      tag_113\n      jump\t// in\n    tag_230:\n        /* \"#utility.yul\":12397:12516   */\n      swap4\n      pop\n        /* \"#utility.yul\":12540:12601   */\n      tag_231\n        /* \"#utility.yul\":12595:12600   */\n      dup4\n        /* \"#utility.yul\":12540:12601   */\n      tag_114\n      jump\t// in\n    tag_231:\n        /* \"#utility.yul\":12624:12631   */\n      dup1\n        /* \"#utility.yul\":12655:12656   */\n      0x00\n        /* \"#utility.yul\":12640:12992   */\n    tag_232:\n        /* \"#utility.yul\":12665:12671   */\n      dup4\n        /* \"#utility.yul\":12662:12663   */\n      dup2\n        /* \"#utility.yul\":12659:12672   */\n      lt\n        /* \"#utility.yul\":12640:12992   */\n      iszero\n      tag_234\n      jumpi\n        /* \"#utility.yul\":12735:12787   */\n      tag_235\n        /* \"#utility.yul\":12780:12786   */\n      dup3\n        /* \"#utility.yul\":12735:12787   */\n      tag_120\n      jump\t// in\n    tag_235:\n        /* \"#utility.yul\":12807:12894   */\n      tag_236\n        /* \"#utility.yul\":12890:12893   */\n      dup9\n        /* \"#utility.yul\":12875:12888   */\n      dup3\n        /* \"#utility.yul\":12807:12894   */\n      tag_116\n      jump\t// in\n    tag_236:\n        /* \"#utility.yul\":12800:12894   */\n      swap8\n      pop\n        /* \"#utility.yul\":12917:12982   */\n      tag_237\n        /* \"#utility.yul\":12975:12981   */\n      dup4\n        /* \"#utility.yul\":12917:12982   */\n      tag_121\n      jump\t// in\n    tag_237:\n        /* \"#utility.yul\":12907:12982   */\n      swap3\n      pop\n        /* \"#utility.yul\":12700:12992   */\n      pop\n        /* \"#utility.yul\":12687:12688   */\n      0x01\n        /* \"#utility.yul\":12684:12685   */\n      dup2\n        /* \"#utility.yul\":12680:12689   */\n      add\n        /* \"#utility.yul\":12675:12689   */\n      swap1\n      pop\n        /* \"#utility.yul\":12640:12992   */\n      jump(tag_232)\n    tag_234:\n        /* \"#utility.yul\":12644:12658   */\n      pop\n        /* \"#utility.yul\":13008:13011   */\n      dup6\n        /* \"#utility.yul\":13001:13011   */\n      swap4\n      pop\n        /* \"#utility.yul\":12305:13017   */\n      pop\n      pop\n      pop\n        /* \"#utility.yul\":12150:13017   */\n      swap3\n      swap2\n      pop\n      pop\n      jump\t// out\n        /* \"#utility.yul\":13023:13666   */\n    tag_71:\n        /* \"#utility.yul\":13254:13257   */\n      0x00\n        /* \"#utility.yul\":13269:13344   */\n      tag_239\n        /* \"#utility.yul\":13340:13343   */\n      dup3\n        /* \"#utility.yul\":13331:13337   */\n      dup7\n        /* \"#utility.yul\":13269:13344   */\n      tag_111\n      jump\t// in\n    tag_239:\n        /* \"#utility.yul\":13369:13371   */\n      0x20\n        /* \"#utility.yul\":13364:13367   */\n      dup3\n        /* \"#utility.yul\":13360:13372   */\n      add\n        /* \"#utility.yul\":13353:13372   */\n      swap2\n      pop\n        /* \"#utility.yul\":13382:13457   */\n      tag_240\n        /* \"#utility.yul\":13453:13456   */\n      dup3\n        /* \"#utility.yul\":13444:13450   */\n      dup6\n        /* \"#utility.yul\":13382:13457   */\n      tag_111\n      jump\t// in\n    tag_240:\n        /* \"#utility.yul\":13482:13484   */\n      0x20\n        /* \"#utility.yul\":13477:13480   */\n      dup3\n        /* \"#utility.yul\":13473:13485   */\n      add\n        /* \"#utility.yul\":13466:13485   */\n      swap2\n      pop\n        /* \"#utility.yul\":13502:13640   */\n      tag_241\n        /* \"#utility.yul\":13636:13639   */\n      dup3\n        /* \"#utility.yul\":13627:13633   */\n      dup5\n        /* \"#utility.yul\":13502:13640   */\n      tag_122\n      jump\t// in\n    tag_241:\n        /* \"#utility.yul\":13495:13640   */\n      swap2\n      pop\n        /* \"#utility.yul\":13657:13660   */\n      dup2\n        /* \"#utility.yul\":13650:13660   */\n      swap1\n      pop\n        /* \"#utility.yul\":13023:13666   */\n      swap5\n      swap4\n      pop\n      pop\n      pop\n      pop\n      jump\t// out\n\n    auxdata: 0xa26469706673582212203ac21f2cde008aea7ab7afb4161ba334b4faf681323744835d4e5df7273665fc64736f6c63430008130033\n}\n",
				"bytecode": {
					"linkReferences": {},
					"object": "608060405234801561001057600080fd5b50336000806101000a81548173ffffffffffffffffffffffffffffffffffffffff021916908373ffffffffffffffffffffffffffffffffffffffff160217905550610c3e806100606000396000f3fe60806040526004361061004a5760003560e01c8063481c6a751461004f5780635d495aea1461007a5780638b5b9ccc14610091578063e97dcb62146100bc578063f71d96cb146100c6575b600080fd5b34801561005b57600080fd5b50610064610103565b6040516100719190610606565b60405180910390f35b34801561008657600080fd5b5061008f610127565b005b34801561009d57600080fd5b506100a661036d565b6040516100b391906106f1565b60405180910390f35b6100c46103fb565b005b3480156100d257600080fd5b506100ed60048036038101906100e8919061074e565b6104a9565b6040516100fa919061078a565b60405180910390f35b60008054906101000a900473ffffffffffffffffffffffffffffffffffffffff1681565b60008054906101000a900473ffffffffffffffffffffffffffffffffffffffff1673ffffffffffffffffffffffffffffffffffffffff163373ffffffffffffffffffffffffffffffffffffffff16146101b5576040517f08c379a00000000000000000000000000000000000000000000000000000000081526004016101ac90610802565b60405180910390fd5b6000600180549050116101fd576040517f08c379a00000000000000000000000000000000000000000000000000000000081526004016101f49061086e565b60405180910390fd5b600060018054905061020d6104e8565b61021791906108bd565b905060006001828154811061022f5761022e6108ee565b5b9060005260206000200160009054906101000a900473ffffffffffffffffffffffffffffffffffffffff16905060008173ffffffffffffffffffffffffffffffffffffffff16476040516102829061094e565b60006040518083038185875af1925050503d80600081146102bf576040519150601f19603f3d011682016040523d82523d6000602084013e6102c4565b606091505b5050905080610308576040517f08c379a00000000000000000000000000000000000000000000000000000000081526004016102ff906109af565b60405180910390fd5b600067ffffffffffffffff811115610323576103226109cf565b5b6040519080825280602002602001820160405280156103515781602001602082028036833780820191505090505b506001908051906020019061036792919061051e565b50505050565b606060018054806020026020016040519081016040528092919081815260200182805480156103f157602002820191906000526020600020905b8160009054906101000a900473ffffffffffffffffffffffffffffffffffffffff1673ffffffffffffffffffffffffffffffffffffffff16815260200190600101908083116103a7575b5050505050905090565b662386f26fc100003410610444576040517f08c379a000000000000000000000000000000000000000000000000000000000815260040161043b90610a70565b60405180910390fd5b6001339080600181540180825580915050600190039060005260206000200160009091909190916101000a81548173ffffffffffffffffffffffffffffffffffffffff021916908373ffffffffffffffffffffffffffffffffffffffff160217905550565b600181815481106104b957600080fd5b906000526020600020016000915054906101000a900473ffffffffffffffffffffffffffffffffffffffff1681565b60004442600160405160200161050093929190610bcf565b6040516020818303038152906040528051906020012060001c905090565b828054828255906000526020600020908101928215610597579160200282015b828111156105965782518260006101000a81548173ffffffffffffffffffffffffffffffffffffffff021916908373ffffffffffffffffffffffffffffffffffffffff1602179055509160200191906001019061053e565b5b5090506105a491906105a8565b5090565b5b808211156105c15760008160009055506001016105a9565b5090565b600073ffffffffffffffffffffffffffffffffffffffff82169050919050565b60006105f0826105c5565b9050919050565b610600816105e5565b82525050565b600060208201905061061b60008301846105f7565b92915050565b600081519050919050565b600082825260208201905092915050565b6000819050602082019050919050565b6000610658826105c5565b9050919050565b6106688161064d565b82525050565b600061067a838361065f565b60208301905092915050565b6000602082019050919050565b600061069e82610621565b6106a8818561062c565b93506106b38361063d565b8060005b838110156106e45781516106cb888261066e565b97506106d683610686565b9250506001810190506106b7565b5085935050505092915050565b6000602082019050818103600083015261070b8184610693565b905092915050565b600080fd5b6000819050919050565b61072b81610718565b811461073657600080fd5b50565b60008135905061074881610722565b92915050565b60006020828403121561076457610763610713565b5b600061077284828501610739565b91505092915050565b6107848161064d565b82525050565b600060208201905061079f600083018461077b565b92915050565b600082825260208201905092915050565b7f4e6f7420746865206d616e616765720000000000000000000000000000000000600082015250565b60006107ec600f836107a5565b91506107f7826107b6565b602082019050919050565b6000602082019050818103600083015261081b816107df565b9050919050565b7f4e6f20706c617965727320696e20746865206c6f747465727900000000000000600082015250565b60006108586019836107a5565b915061086382610822565b602082019050919050565b600060208201905081810360008301526108878161084b565b9050919050565b7f4e487b7100000000000000000000000000000000000000000000000000000000600052601260045260246000fd5b60006108c882610718565b91506108d383610718565b9250826108e3576108e261088e565b5b828206905092915050565b7f4e487b7100000000000000000000000000000000000000000000000000000000600052603260045260246000fd5b600081905092915050565b50565b600061093860008361091d565b915061094382610928565b600082019050919050565b60006109598261092b565b9150819050919050565b7f5472616e73666572206661696c65640000000000000000000000000000000000600082015250565b6000610999600f836107a5565b91506109a482610963565b602082019050919050565b600060208201905081810360008301526109c88161098c565b9050919050565b7f4e487b7100000000000000000000000000000000000000000000000000000000600052604160045260246000fd5b7f54686520616d6f756e742073686f756c6420626520677265617465722074686160008201527f6e202e3031206574686572000000000000000000000000000000000000000000602082015250565b6000610a5a602b836107a5565b9150610a65826109fe565b604082019050919050565b60006020820190508181036000830152610a8981610a4d565b9050919050565b6000819050919050565b610aab610aa682610718565b610a90565b82525050565b600081549050919050565b600081905092915050565b60008190508160005260206000209050919050565b610ae58161064d565b82525050565b6000610af78383610adc565b60208301905092915050565b60008160001c9050919050565b600073ffffffffffffffffffffffffffffffffffffffff82169050919050565b6000610b43610b3e83610b03565b610b10565b9050919050565b6000610b568254610b30565b9050919050565b6000600182019050919050565b6000610b7582610ab1565b610b7f8185610abc565b9350610b8a83610ac7565b8060005b83811015610bc257610b9f82610b4a565b610ba98882610aeb565b9750610bb483610b5d565b925050600181019050610b8e565b5085935050505092915050565b6000610bdb8286610a9a565b602082019150610beb8285610a9a565b602082019150610bfb8284610b6a565b915081905094935050505056fea26469706673582212203ac21f2cde008aea7ab7afb4161ba334b4faf681323744835d4e5df7273665fc64736f6c63430008130033",
					"opcodes": "PUSH1 0x80 PUSH1 0x40 MSTORE CALLVALUE DUP1 ISZERO PUSH2 0x10 JUMPI PUSH1 0x0 DUP1 REVERT JUMPDEST POP CALLER PUSH1 0x0 DUP1 PUSH2 0x100 EXP DUP2 SLOAD DUP2 PUSH20 0xFFFFFFFFFFFFFFFFFFFFFFFFFFFFFFFFFFFFFFFF MUL NOT AND SWAP1 DUP4 PUSH20 0xFFFFFFFFFFFFFFFFFFFFFFFFFFFFFFFFFFFFFFFF AND MUL OR SWAP1 SSTORE POP PUSH2 0xC3E DUP1 PUSH2 0x60 PUSH1 0x0 CODECOPY PUSH1 0x0 RETURN INVALID PUSH1 0x80 PUSH1 0x40 MSTORE PUSH1 0x4 CALLDATASIZE LT PUSH2 0x4A JUMPI PUSH1 0x0 CALLDATALOAD PUSH1 0xE0 SHR DUP1 PUSH4 0x481C6A75 EQ PUSH2 0x4F JUMPI DUP1 PUSH4 0x5D495AEA EQ PUSH2 0x7A JUMPI DUP1 PUSH4 0x8B5B9CCC EQ PUSH2 0x91 JUMPI DUP1 PUSH4 0xE97DCB62 EQ PUSH2 0xBC JUMPI DUP1 PUSH4 0xF71D96CB EQ PUSH2 0xC6 JUMPI JUMPDEST PUSH1 0x0 DUP1 REVERT JUMPDEST CALLVALUE DUP1 ISZERO PUSH2 0x5B JUMPI PUSH1 0x0 DUP1 REVERT JUMPDEST POP PUSH2 0x64 PUSH2 0x103 JUMP JUMPDEST PUSH1 0x40 MLOAD PUSH2 0x71 SWAP2 SWAP1 PUSH2 0x606 JUMP JUMPDEST PUSH1 0x40 MLOAD DUP1 SWAP2 SUB SWAP1 RETURN JUMPDEST CALLVALUE DUP1 ISZERO PUSH2 0x86 JUMPI PUSH1 0x0 DUP1 REVERT JUMPDEST POP PUSH2 0x8F PUSH2 0x127 JUMP JUMPDEST STOP JUMPDEST CALLVALUE DUP1 ISZERO PUSH2 0x9D JUMPI PUSH1 0x0 DUP1 REVERT JUMPDEST POP PUSH2 0xA6 PUSH2 0x36D JUMP JUMPDEST PUSH1 0x40 MLOAD PUSH2 0xB3 SWAP2 SWAP1 PUSH2 0x6F1 JUMP JUMPDEST PUSH1 0x40 MLOAD DUP1 SWAP2 SUB SWAP1 RETURN JUMPDEST PUSH2 0xC4 PUSH2 0x3FB JUMP JUMPDEST STOP JUMPDEST CALLVALUE DUP1 ISZERO PUSH2 0xD2 JUMPI PUSH1 0x0 DUP1 REVERT JUMPDEST POP PUSH2 0xED PUSH1 0x4 DUP1 CALLDATASIZE SUB DUP2 ADD SWAP1 PUSH2 0xE8 SWAP2 SWAP1 PUSH2 0x74E JUMP JUMPDEST PUSH2 0x4A9 JUMP JUMPDEST PUSH1 0x40 MLOAD PUSH2 0xFA SWAP2 SWAP1 PUSH2 0x78A JUMP JUMPDEST PUSH1 0x40 MLOAD DUP1 SWAP2 SUB SWAP1 RETURN JUMPDEST PUSH1 0x0 DUP1 SLOAD SWAP1 PUSH2 0x100 EXP SWAP1 DIV PUSH20 0xFFFFFFFFFFFFFFFFFFFFFFFFFFFFFFFFFFFFFFFF AND DUP2 JUMP JUMPDEST PUSH1 0x0 DUP1 SLOAD SWAP1 PUSH2 0x100 EXP SWAP1 DIV PUSH20 0xFFFFFFFFFFFFFFFFFFFFFFFFFFFFFFFFFFFFFFFF AND PUSH20 0xFFFFFFFFFFFFFFFFFFFFFFFFFFFFFFFFFFFFFFFF AND CALLER PUSH20 0xFFFFFFFFFFFFFFFFFFFFFFFFFFFFFFFFFFFFFFFF AND EQ PUSH2 0x1B5 JUMPI PUSH1 0x40 MLOAD PUSH32 0x8C379A000000000000000000000000000000000000000000000000000000000 DUP2 MSTORE PUSH1 0x4 ADD PUSH2 0x1AC SWAP1 PUSH2 0x802 JUMP JUMPDEST PUSH1 0x40 MLOAD DUP1 SWAP2 SUB SWAP1 REVERT JUMPDEST PUSH1 0x0 PUSH1 0x1 DUP1 SLOAD SWAP1 POP GT PUSH2 0x1FD JUMPI PUSH1 0x40 MLOAD PUSH32 0x8C379A000000000000000000000000000000000000000000000000000000000 DUP2 MSTORE PUSH1 0x4 ADD PUSH2 0x1F4 SWAP1 PUSH2 0x86E JUMP JUMPDEST PUSH1 0x40 MLOAD DUP1 SWAP2 SUB SWAP1 REVERT JUMPDEST PUSH1 0x0 PUSH1 0x1 DUP1 SLOAD SWAP1 POP PUSH2 0x20D PUSH2 0x4E8 JUMP JUMPDEST PUSH2 0x217 SWAP2 SWAP1 PUSH2 0x8BD JUMP JUMPDEST SWAP1 POP PUSH1 0x0 PUSH1 0x1 DUP3 DUP2 SLOAD DUP2 LT PUSH2 0x22F JUMPI PUSH2 0x22E PUSH2 0x8EE JUMP JUMPDEST JUMPDEST SWAP1 PUSH1 0x0 MSTORE PUSH1 0x20 PUSH1 0x0 KECCAK256 ADD PUSH1 0x0 SWAP1 SLOAD SWAP1 PUSH2 0x100 EXP SWAP1 DIV PUSH20 0xFFFFFFFFFFFFFFFFFFFFFFFFFFFFFFFFFFFFFFFF AND SWAP1 POP PUSH1 0x0 DUP2 PUSH20 0xFFFFFFFFFFFFFFFFFFFFFFFFFFFFFFFFFFFFFFFF AND SELFBALANCE PUSH1 0x40 MLOAD PUSH2 0x282 SWAP1 PUSH2 0x94E JUMP JUMPDEST PUSH1 0x0 PUSH1 0x40 MLOAD DUP1 DUP4 SUB DUP2 DUP6 DUP8 GAS CALL SWAP3 POP POP POP RETURNDATASIZE DUP1 PUSH1 0x0 DUP2 EQ PUSH2 0x2BF JUMPI PUSH1 0x40 MLOAD SWAP2 POP PUSH1 0x1F NOT PUSH1 0x3F RETURNDATASIZE ADD AND DUP3 ADD PUSH1 0x40 MSTORE RETURNDATASIZE DUP3 MSTORE RETURNDATASIZE PUSH1 0x0 PUSH1 0x20 DUP5 ADD RETURNDATACOPY PUSH2 0x2C4 JUMP JUMPDEST PUSH1 0x60 SWAP2 POP JUMPDEST POP POP SWAP1 POP DUP1 PUSH2 0x308 JUMPI PUSH1 0x40 MLOAD PUSH32 0x8C379A000000000000000000000000000000000000000000000000000000000 DUP2 MSTORE PUSH1 0x4 ADD PUSH2 0x2FF SWAP1 PUSH2 0x9AF JUMP JUMPDEST PUSH1 0x40 MLOAD DUP1 SWAP2 SUB SWAP1 REVERT JUMPDEST PUSH1 0x0 PUSH8 0xFFFFFFFFFFFFFFFF DUP2 GT ISZERO PUSH2 0x323 JUMPI PUSH2 0x322 PUSH2 0x9CF JUMP JUMPDEST JUMPDEST PUSH1 0x40 MLOAD SWAP1 DUP1 DUP3 MSTORE DUP1 PUSH1 0x20 MUL PUSH1 0x20 ADD DUP3 ADD PUSH1 0x40 MSTORE DUP1 ISZERO PUSH2 0x351 JUMPI DUP2 PUSH1 0x20 ADD PUSH1 0x20 DUP3 MUL DUP1 CALLDATASIZE DUP4 CALLDATACOPY DUP1 DUP3 ADD SWAP2 POP POP SWAP1 POP JUMPDEST POP PUSH1 0x1 SWAP1 DUP1 MLOAD SWAP1 PUSH1 0x20 ADD SWAP1 PUSH2 0x367 SWAP3 SWAP2 SWAP1 PUSH2 0x51E JUMP JUMPDEST POP POP POP POP JUMP JUMPDEST PUSH1 0x60 PUSH1 0x1 DUP1 SLOAD DUP1 PUSH1 0x20 MUL PUSH1 0x20 ADD PUSH1 0x40 MLOAD SWAP1 DUP2 ADD PUSH1 0x40 MSTORE DUP1 SWAP3 SWAP2 SWAP1 DUP2 DUP2 MSTORE PUSH1 0x20 ADD DUP3 DUP1 SLOAD DUP1 ISZERO PUSH2 0x3F1 JUMPI PUSH1 0x20 MUL DUP3 ADD SWAP2 SWAP1 PUSH1 0x0 MSTORE PUSH1 0x20 PUSH1 0x0 KECCAK256 SWAP1 JUMPDEST DUP2 PUSH1 0x0 SWAP1 SLOAD SWAP1 PUSH2 0x100 EXP SWAP1 DIV PUSH20 0xFFFFFFFFFFFFFFFFFFFFFFFFFFFFFFFFFFFFFFFF AND PUSH20 0xFFFFFFFFFFFFFFFFFFFFFFFFFFFFFFFFFFFFFFFF AND DUP2 MSTORE PUSH1 0x20 ADD SWAP1 PUSH1 0x1 ADD SWAP1 DUP1 DUP4 GT PUSH2 0x3A7 JUMPI JUMPDEST POP POP POP POP POP SWAP1 POP SWAP1 JUMP JUMPDEST PUSH7 0x2386F26FC10000 CALLVALUE LT PUSH2 0x444 JUMPI PUSH1 0x40 MLOAD PUSH32 0x8C379A000000000000000000000000000000000000000000000000000000000 DUP2 MSTORE PUSH1 0x4 ADD PUSH2 0x43B SWAP1 PUSH2 0xA70 JUMP JUMPDEST PUSH1 0x40 MLOAD DUP1 SWAP2 SUB SWAP1 REVERT JUMPDEST PUSH1 0x1 CALLER SWAP1 DUP1 PUSH1 0x1 DUP2 SLOAD ADD DUP1 DUP3 SSTORE DUP1 SWAP2 POP POP PUSH1 0x1 SWAP1 SUB SWAP1 PUSH1 0x0 MSTORE PUSH1 0x20 PUSH1 0x0 KECCAK256 ADD PUSH1 0x0 SWAP1 SWAP2 SWAP1 SWAP2 SWAP1 SWAP2 PUSH2 0x100 EXP DUP2 SLOAD DUP2 PUSH20 0xFFFFFFFFFFFFFFFFFFFFFFFFFFFFFFFFFFFFFFFF MUL NOT AND SWAP1 DUP4 PUSH20 0xFFFFFFFFFFFFFFFFFFFFFFFFFFFFFFFFFFFFFFFF AND MUL OR SWAP1 SSTORE POP JUMP JUMPDEST PUSH1 0x1 DUP2 DUP2 SLOAD DUP2 LT PUSH2 0x4B9 JUMPI PUSH1 0x0 DUP1 REVERT JUMPDEST SWAP1 PUSH1 0x0 MSTORE PUSH1 0x20 PUSH1 0x0 KECCAK256 ADD PUSH1 0x0 SWAP2 POP SLOAD SWAP1 PUSH2 0x100 EXP SWAP1 DIV PUSH20 0xFFFFFFFFFFFFFFFFFFFFFFFFFFFFFFFFFFFFFFFF AND DUP2 JUMP JUMPDEST PUSH1 0x0 PREVRANDAO TIMESTAMP PUSH1 0x1 PUSH1 0x40 MLOAD PUSH1 0x20 ADD PUSH2 0x500 SWAP4 SWAP3 SWAP2 SWAP1 PUSH2 0xBCF JUMP JUMPDEST PUSH1 0x40 MLOAD PUSH1 0x20 DUP2 DUP4 SUB SUB DUP2 MSTORE SWAP1 PUSH1 0x40 MSTORE DUP1 MLOAD SWAP1 PUSH1 0x20 ADD KECCAK256 PUSH1 0x0 SHR SWAP1 POP SWAP1 JUMP JUMPDEST DUP3 DUP1 SLOAD DUP3 DUP3 SSTORE SWAP1 PUSH1 0x0 MSTORE PUSH1 0x20 PUSH1 0x0 KECCAK256 SWAP1 DUP2 ADD SWAP3 DUP3 ISZERO PUSH2 0x597 JUMPI SWAP2 PUSH1 0x20 MUL DUP3 ADD JUMPDEST DUP3 DUP2 GT ISZERO PUSH2 0x596 JUMPI DUP3 MLOAD DUP3 PUSH1 0x0 PUSH2 0x100 EXP DUP2 SLOAD DUP2 PUSH20 0xFFFFFFFFFFFFFFFFFFFFFFFFFFFFFFFFFFFFFFFF MUL NOT AND SWAP1 DUP4 PUSH20 0xFFFFFFFFFFFFFFFFFFFFFFFFFFFFFFFFFFFFFFFF AND MUL OR SWAP1 SSTORE POP SWAP2 PUSH1 0x20 ADD SWAP2 SWAP1 PUSH1 0x1 ADD SWAP1 PUSH2 0x53E JUMP JUMPDEST JUMPDEST POP SWAP1 POP PUSH2 0x5A4 SWAP2 SWAP1 PUSH2 0x5A8 JUMP JUMPDEST POP SWAP1 JUMP JUMPDEST JUMPDEST DUP1 DUP3 GT ISZERO PUSH2 0x5C1 JUMPI PUSH1 0x0 DUP2 PUSH1 0x0 SWAP1 SSTORE POP PUSH1 0x1 ADD PUSH2 0x5A9 JUMP JUMPDEST POP SWAP1 JUMP JUMPDEST PUSH1 0x0 PUSH20 0xFFFFFFFFFFFFFFFFFFFFFFFFFFFFFFFFFFFFFFFF DUP3 AND SWAP1 POP SWAP2 SWAP1 POP JUMP JUMPDEST PUSH1 0x0 PUSH2 0x5F0 DUP3 PUSH2 0x5C5 JUMP JUMPDEST SWAP1 POP SWAP2 SWAP1 POP JUMP JUMPDEST PUSH2 0x600 DUP2 PUSH2 0x5E5 JUMP JUMPDEST DUP3 MSTORE POP POP JUMP JUMPDEST PUSH1 0x0 PUSH1 0x20 DUP3 ADD SWAP1 POP PUSH2 0x61B PUSH1 0x0 DUP4 ADD DUP5 PUSH2 0x5F7 JUMP JUMPDEST SWAP3 SWAP2 POP POP JUMP JUMPDEST PUSH1 0x0 DUP2 MLOAD SWAP1 POP SWAP2 SWAP1 POP JUMP JUMPDEST PUSH1 0x0 DUP3 DUP3 MSTORE PUSH1 0x20 DUP3 ADD SWAP1 POP SWAP3 SWAP2 POP POP JUMP JUMPDEST PUSH1 0x0 DUP2 SWAP1 POP PUSH1 0x20 DUP3 ADD SWAP1 POP SWAP2 SWAP1 POP JUMP JUMPDEST PUSH1 0x0 PUSH2 0x658 DUP3 PUSH2 0x5C5 JUMP JUMPDEST SWAP1 POP SWAP2 SWAP1 POP JUMP JUMPDEST PUSH2 0x668 DUP2 PUSH2 0x64D JUMP JUMPDEST DUP3 MSTORE POP POP JUMP JUMPDEST PUSH1 0x0 PUSH2 0x67A DUP4 DUP4 PUSH2 0x65F JUMP JUMPDEST PUSH1 0x20 DUP4 ADD SWAP1 POP SWAP3 SWAP2 POP POP JUMP JUMPDEST PUSH1 0x0 PUSH1 0x20 DUP3 ADD SWAP1 POP SWAP2 SWAP1 POP JUMP JUMPDEST PUSH1 0x0 PUSH2 0x69E DUP3 PUSH2 0x621 JUMP JUMPDEST PUSH2 0x6A8 DUP2 DUP6 PUSH2 0x62C JUMP JUMPDEST SWAP4 POP PUSH2 0x6B3 DUP4 PUSH2 0x63D JUMP JUMPDEST DUP1 PUSH1 0x0 JUMPDEST DUP4 DUP2 LT ISZERO PUSH2 0x6E4 JUMPI DUP2 MLOAD PUSH2 0x6CB DUP9 DUP3 PUSH2 0x66E JUMP JUMPDEST SWAP8 POP PUSH2 0x6D6 DUP4 PUSH2 0x686 JUMP JUMPDEST SWAP3 POP POP PUSH1 0x1 DUP2 ADD SWAP1 POP PUSH2 0x6B7 JUMP JUMPDEST POP DUP6 SWAP4 POP POP POP POP SWAP3 SWAP2 POP POP JUMP JUMPDEST PUSH1 0x0 PUSH1 0x20 DUP3 ADD SWAP1 POP DUP2 DUP2 SUB PUSH1 0x0 DUP4 ADD MSTORE PUSH2 0x70B DUP2 DUP5 PUSH2 0x693 JUMP JUMPDEST SWAP1 POP SWAP3 SWAP2 POP POP JUMP JUMPDEST PUSH1 0x0 DUP1 REVERT JUMPDEST PUSH1 0x0 DUP2 SWAP1 POP SWAP2 SWAP1 POP JUMP JUMPDEST PUSH2 0x72B DUP2 PUSH2 0x718 JUMP JUMPDEST DUP2 EQ PUSH2 0x736 JUMPI PUSH1 0x0 DUP1 REVERT JUMPDEST POP JUMP JUMPDEST PUSH1 0x0 DUP2 CALLDATALOAD SWAP1 POP PUSH2 0x748 DUP2 PUSH2 0x722 JUMP JUMPDEST SWAP3 SWAP2 POP POP JUMP JUMPDEST PUSH1 0x0 PUSH1 0x20 DUP3 DUP5 SUB SLT ISZERO PUSH2 0x764 JUMPI PUSH2 0x763 PUSH2 0x713 JUMP JUMPDEST JUMPDEST PUSH1 0x0 PUSH2 0x772 DUP5 DUP3 DUP6 ADD PUSH2 0x739 JUMP JUMPDEST SWAP2 POP POP SWAP3 SWAP2 POP POP JUMP JUMPDEST PUSH2 0x784 DUP2 PUSH2 0x64D JUMP JUMPDEST DUP3 MSTORE POP POP JUMP JUMPDEST PUSH1 0x0 PUSH1 0x20 DUP3 ADD SWAP1 POP PUSH2 0x79F PUSH1 0x0 DUP4 ADD DUP5 PUSH2 0x77B JUMP JUMPDEST SWAP3 SWAP2 POP POP JUMP JUMPDEST PUSH1 0x0 DUP3 DUP3 MSTORE PUSH1 0x20 DUP3 ADD SWAP1 POP SWAP3 SWAP2 POP POP JUMP JUMPDEST PUSH32 0x4E6F7420746865206D616E616765720000000000000000000000000000000000 PUSH1 0x0 DUP3 ADD MSTORE POP JUMP JUMPDEST PUSH1 0x0 PUSH2 0x7EC PUSH1 0xF DUP4 PUSH2 0x7A5 JUMP JUMPDEST SWAP2 POP PUSH2 0x7F7 DUP3 PUSH2 0x7B6 JUMP JUMPDEST PUSH1 0x20 DUP3 ADD SWAP1 POP SWAP2 SWAP1 POP JUMP JUMPDEST PUSH1 0x0 PUSH1 0x20 DUP3 ADD SWAP1 POP DUP2 DUP2 SUB PUSH1 0x0 DUP4 ADD MSTORE PUSH2 0x81B DUP2 PUSH2 0x7DF JUMP JUMPDEST SWAP1 POP SWAP2 SWAP1 POP JUMP JUMPDEST PUSH32 0x4E6F20706C617965727320696E20746865206C6F747465727900000000000000 PUSH1 0x0 DUP3 ADD MSTORE POP JUMP JUMPDEST PUSH1 0x0 PUSH2 0x858 PUSH1 0x19 DUP4 PUSH2 0x7A5 JUMP JUMPDEST SWAP2 POP PUSH2 0x863 DUP3 PUSH2 0x822 JUMP JUMPDEST PUSH1 0x20 DUP3 ADD SWAP1 POP SWAP2 SWAP1 POP JUMP JUMPDEST PUSH1 0x0 PUSH1 0x20 DUP3 ADD SWAP1 POP DUP2 DUP2 SUB PUSH1 0x0 DUP4 ADD MSTORE PUSH2 0x887 DUP2 PUSH2 0x84B JUMP JUMPDEST SWAP1 POP SWAP2 SWAP1 POP JUMP JUMPDEST PUSH32 0x4E487B7100000000000000000000000000000000000000000000000000000000 PUSH1 0x0 MSTORE PUSH1 0x12 PUSH1 0x4 MSTORE PUSH1 0x24 PUSH1 0x0 REVERT JUMPDEST PUSH1 0x0 PUSH2 0x8C8 DUP3 PUSH2 0x718 JUMP JUMPDEST SWAP2 POP PUSH2 0x8D3 DUP4 PUSH2 0x718 JUMP JUMPDEST SWAP3 POP DUP3 PUSH2 0x8E3 JUMPI PUSH2 0x8E2 PUSH2 0x88E JUMP JUMPDEST JUMPDEST DUP3 DUP3 MOD SWAP1 POP SWAP3 SWAP2 POP POP JUMP JUMPDEST PUSH32 0x4E487B7100000000000000000000000000000000000000000000000000000000 PUSH1 0x0 MSTORE PUSH1 0x32 PUSH1 0x4 MSTORE PUSH1 0x24 PUSH1 0x0 REVERT JUMPDEST PUSH1 0x0 DUP2 SWAP1 POP SWAP3 SWAP2 POP POP JUMP JUMPDEST POP JUMP JUMPDEST PUSH1 0x0 PUSH2 0x938 PUSH1 0x0 DUP4 PUSH2 0x91D JUMP JUMPDEST SWAP2 POP PUSH2 0x943 DUP3 PUSH2 0x928 JUMP JUMPDEST PUSH1 0x0 DUP3 ADD SWAP1 POP SWAP2 SWAP1 POP JUMP JUMPDEST PUSH1 0x0 PUSH2 0x959 DUP3 PUSH2 0x92B JUMP JUMPDEST SWAP2 POP DUP2 SWAP1 POP SWAP2 SWAP1 POP JUMP JUMPDEST PUSH32 0x5472616E73666572206661696C65640000000000000000000000000000000000 PUSH1 0x0 DUP3 ADD MSTORE POP JUMP JUMPDEST PUSH1 0x0 PUSH2 0x999 PUSH1 0xF DUP4 PUSH2 0x7A5 JUMP JUMPDEST SWAP2 POP PUSH2 0x9A4 DUP3 PUSH2 0x963 JUMP JUMPDEST PUSH1 0x20 DUP3 ADD SWAP1 POP SWAP2 SWAP1 POP JUMP JUMPDEST PUSH1 0x0 PUSH1 0x20 DUP3 ADD SWAP1 POP DUP2 DUP2 SUB PUSH1 0x0 DUP4 ADD MSTORE PUSH2 0x9C8 DUP2 PUSH2 0x98C JUMP JUMPDEST SWAP1 POP SWAP2 SWAP1 POP JUMP JUMPDEST PUSH32 0x4E487B7100000000000000000000000000000000000000000000000000000000 PUSH1 0x0 MSTORE PUSH1 0x41 PUSH1 0x4 MSTORE PUSH1 0x24 PUSH1 0x0 REVERT JUMPDEST PUSH32 0x54686520616D6F756E742073686F756C64206265206772656174657220746861 PUSH1 0x0 DUP3 ADD MSTORE PUSH32 0x6E202E3031206574686572000000000000000000000000000000000000000000 PUSH1 0x20 DUP3 ADD MSTORE POP JUMP JUMPDEST PUSH1 0x0 PUSH2 0xA5A PUSH1 0x2B DUP4 PUSH2 0x7A5 JUMP JUMPDEST SWAP2 POP PUSH2 0xA65 DUP3 PUSH2 0x9FE JUMP JUMPDEST PUSH1 0x40 DUP3 ADD SWAP1 POP SWAP2 SWAP1 POP JUMP JUMPDEST PUSH1 0x0 PUSH1 0x20 DUP3 ADD SWAP1 POP DUP2 DUP2 SUB PUSH1 0x0 DUP4 ADD MSTORE PUSH2 0xA89 DUP2 PUSH2 0xA4D JUMP JUMPDEST SWAP1 POP SWAP2 SWAP1 POP JUMP JUMPDEST PUSH1 0x0 DUP2 SWAP1 POP SWAP2 SWAP1 POP JUMP JUMPDEST PUSH2 0xAAB PUSH2 0xAA6 DUP3 PUSH2 0x718 JUMP JUMPDEST PUSH2 0xA90 JUMP JUMPDEST DUP3 MSTORE POP POP JUMP JUMPDEST PUSH1 0x0 DUP2 SLOAD SWAP1 POP SWAP2 SWAP1 POP JUMP JUMPDEST PUSH1 0x0 DUP2 SWAP1 POP SWAP3 SWAP2 POP POP JUMP JUMPDEST PUSH1 0x0 DUP2 SWAP1 POP DUP2 PUSH1 0x0 MSTORE PUSH1 0x20 PUSH1 0x0 KECCAK256 SWAP1 POP SWAP2 SWAP1 POP JUMP JUMPDEST PUSH2 0xAE5 DUP2 PUSH2 0x64D JUMP JUMPDEST DUP3 MSTORE POP POP JUMP JUMPDEST PUSH1 0x0 PUSH2 0xAF7 DUP4 DUP4 PUSH2 0xADC JUMP JUMPDEST PUSH1 0x20 DUP4 ADD SWAP1 POP SWAP3 SWAP2 POP POP JUMP JUMPDEST PUSH1 0x0 DUP2 PUSH1 0x0 SHR SWAP1 POP SWAP2 SWAP1 POP JUMP JUMPDEST PUSH1 0x0 PUSH20 0xFFFFFFFFFFFFFFFFFFFFFFFFFFFFFFFFFFFFFFFF DUP3 AND SWAP1 POP SWAP2 SWAP1 POP JUMP JUMPDEST PUSH1 0x0 PUSH2 0xB43 PUSH2 0xB3E DUP4 PUSH2 0xB03 JUMP JUMPDEST PUSH2 0xB10 JUMP JUMPDEST SWAP1 POP SWAP2 SWAP1 POP JUMP JUMPDEST PUSH1 0x0 PUSH2 0xB56 DUP3 SLOAD PUSH2 0xB30 JUMP JUMPDEST SWAP1 POP SWAP2 SWAP1 POP JUMP JUMPDEST PUSH1 0x0 PUSH1 0x1 DUP3 ADD SWAP1 POP SWAP2 SWAP1 POP JUMP JUMPDEST PUSH1 0x0 PUSH2 0xB75 DUP3 PUSH2 0xAB1 JUMP JUMPDEST PUSH2 0xB7F DUP2 DUP6 PUSH2 0xABC JUMP JUMPDEST SWAP4 POP PUSH2 0xB8A DUP4 PUSH2 0xAC7 JUMP JUMPDEST DUP1 PUSH1 0x0 JUMPDEST DUP4 DUP2 LT ISZERO PUSH2 0xBC2 JUMPI PUSH2 0xB9F DUP3 PUSH2 0xB4A JUMP JUMPDEST PUSH2 0xBA9 DUP9 DUP3 PUSH2 0xAEB JUMP JUMPDEST SWAP8 POP PUSH2 0xBB4 DUP4 PUSH2 0xB5D JUMP JUMPDEST SWAP3 POP POP PUSH1 0x1 DUP2 ADD SWAP1 POP PUSH2 0xB8E JUMP JUMPDEST POP DUP6 SWAP4 POP POP POP POP SWAP3 SWAP2 POP POP JUMP JUMPDEST PUSH1 0x0 PUSH2 0xBDB DUP3 DUP7 PUSH2 0xA9A JUMP JUMPDEST PUSH1 0x20 DUP3 ADD SWAP2 POP PUSH2 0xBEB DUP3 DUP6 PUSH2 0xA9A JUMP JUMPDEST PUSH1 0x20 DUP3 ADD SWAP2 POP PUSH2 0xBFB DUP3 DUP5 PUSH2 0xB6A JUMP JUMPDEST SWAP2 POP DUP2 SWAP1 POP SWAP5 SWAP4 POP POP POP POP JUMP INVALID LOG2 PUSH5 0x6970667358 0x22 SLT KECCAK256 GASPRICE 0xC2 0x1F 0x2C 0xDE STOP DUP11 0xEA PUSH27 0xB7AFB4161BA334B4FAF681323744835D4E5DF7273665FC64736F6C PUSH4 0x43000813 STOP CALLER "
				},
				"gasEstimates": {
					"creation": {
						"codeDepositCost": "626800",
						"executionCost": "24923",
						"totalCost": "651723"
					},
					"external": {
						"enter()": "48764",
						"getPlayers()": "infinite",
						"manager()": "2489",
						"pickWinner()": "infinite",
						"players(uint256)": "5022"
					},
					"internal": {
						"random()": "infinite"
					}
				},
				"methodIdentifiers": {
					"enter()": "e97dcb62",
					"getPlayers()": "8b5b9ccc",
					"manager()": "481c6a75",
					"pickWinner()": "5d495aea",
					"players(uint256)": "f71d96cb"
				}
			},
			"storageLayout": {
				"storage": [
					{
						"astId": 3,
						"contract": "lottery smart_contract/lottery.sol:Lottery",
						"label": "manager",
						"offset": 0,
						"slot": "0",
						"type": "t_address"
					},
					{
						"astId": 6,
						"contract": "lottery smart_contract/lottery.sol:Lottery",
						"label": "players",
						"offset": 0,
						"slot": "1",
						"type": "t_array(t_address_payable)dyn_storage"
					}
				],
				"types": {
					"t_address": {
						"encoding": "inplace",
						"label": "address",
						"numberOfBytes": "20"
					},
					"t_address_payable": {
						"encoding": "inplace",
						"label": "address payable",
						"numberOfBytes": "20"
					},
					"t_array(t_address_payable)dyn_storage": {
						"base": "t_address_payable",
						"encoding": "dynamic_array",
						"label": "address payable[]",
						"numberOfBytes": "32"
					}
				}
			},
			"userdoc": {
				"kind": "user",
				"methods": {},
				"version": 1
			}
		}
	}
}