{
	"lottery smart_contract/lottery.sol": {
		"Lottery": {
			"abi": [
				{
					"inputs": [],
					"stateMutability": "nonpayable",
					"type": "constructor"
				},
				{
					"inputs": [],
					"name": "enter",
					"outputs": [],
					"stateMutability": "payable",
					"type": "function"
				},
				{
					"inputs": [],
					"name": "manager",
					"outputs": [
						{
							"internalType": "address",
							"name": "",
							"type": "address"
						}
					],
					"stateMutability": "view",
					"type": "function"
				},
				{
					"inputs": [],
					"name": "pickWinner",
					"outputs": [
						{
							"internalType": "address",
							"name": "",
							"type": "address"
						}
					],
					"stateMutability": "view",
					"type": "function"
				},
				{
					"inputs": [
						{
							"internalType": "uint256",
							"name": "",
							"type": "uint256"
						}
					],
					"name": "players",
					"outputs": [
						{
							"internalType": "address",
							"name": "",
							"type": "address"
						}
					],
					"stateMutability": "view",
					"type": "function"
				}
			],
			"devdoc": {
				"kind": "dev",
				"methods": {},
				"version": 1
			},
			"evm": {
				"assembly": "    /* \"lottery smart_contract/lottery.sol\":58:651  contract Lottery{... */\n  mstore(0x40, 0x80)\n    /* \"lottery smart_contract/lottery.sol\":140:191  constructor() {... */\n  callvalue\n  dup1\n  iszero\n  tag_1\n  jumpi\n  0x00\n  dup1\n  revert\ntag_1:\n  pop\n    /* \"lottery smart_contract/lottery.sol\":174:184  msg.sender */\n  caller\n    /* \"lottery smart_contract/lottery.sol\":164:171  manager */\n  0x00\n  dup1\n    /* \"lottery smart_contract/lottery.sol\":164:184  manager = msg.sender */\n  0x0100\n  exp\n  dup2\n  sload\n  dup2\n  0xffffffffffffffffffffffffffffffffffffffff\n  mul\n  not\n  and\n  swap1\n  dup4\n  0xffffffffffffffffffffffffffffffffffffffff\n  and\n  mul\n  or\n  swap1\n  sstore\n  pop\n    /* \"lottery smart_contract/lottery.sol\":58:651  contract Lottery{... */\n  dataSize(sub_0)\n  dup1\n  dataOffset(sub_0)\n  0x00\n  codecopy\n  0x00\n  return\nstop\n\nsub_0: assembly {\n        /* \"lottery smart_contract/lottery.sol\":58:651  contract Lottery{... */\n      mstore(0x40, 0x80)\n      jumpi(tag_1, lt(calldatasize, 0x04))\n      shr(0xe0, calldataload(0x00))\n      dup1\n      0x481c6a75\n      eq\n      tag_2\n      jumpi\n      dup1\n      0x5d495aea\n      eq\n      tag_3\n      jumpi\n      dup1\n      0xe97dcb62\n      eq\n      tag_4\n      jumpi\n      dup1\n      0xf71d96cb\n      eq\n      tag_5\n      jumpi\n    tag_1:\n      0x00\n      dup1\n      revert\n        /* \"lottery smart_contract/lottery.sol\":80:103  address public  manager */\n    tag_2:\n      callvalue\n      dup1\n      iszero\n      tag_6\n      jumpi\n      0x00\n      dup1\n      revert\n    tag_6:\n      pop\n      tag_7\n      tag_8\n      jump\t// in\n    tag_7:\n      mload(0x40)\n      tag_9\n      swap2\n      swap1\n      tag_10\n      jump\t// in\n    tag_9:\n      mload(0x40)\n      dup1\n      swap2\n      sub\n      swap1\n      return\n        /* \"lottery smart_contract/lottery.sol\":513:649  function pickWinner() public view returns(address){... */\n    tag_3:\n      callvalue\n      dup1\n      iszero\n      tag_11\n      jumpi\n      0x00\n      dup1\n      revert\n    tag_11:\n      pop\n      tag_12\n      tag_13\n      jump\t// in\n    tag_12:\n      mload(0x40)\n      tag_14\n      swap2\n      swap1\n      tag_10\n      jump\t// in\n    tag_14:\n      mload(0x40)\n      dup1\n      swap2\n      sub\n      swap1\n      return\n        /* \"lottery smart_contract/lottery.sol\":197:358  function enter() public payable  {... */\n    tag_4:\n      tag_15\n      tag_16\n      jump\t// in\n    tag_15:\n      stop\n        /* \"lottery smart_contract/lottery.sol\":109:133  address[] public players */\n    tag_5:\n      callvalue\n      dup1\n      iszero\n      tag_17\n      jumpi\n      0x00\n      dup1\n      revert\n    tag_17:\n      pop\n      tag_18\n      0x04\n      dup1\n      calldatasize\n      sub\n      dup2\n      add\n      swap1\n      tag_19\n      swap2\n      swap1\n      tag_20\n      jump\t// in\n    tag_19:\n      tag_21\n      jump\t// in\n    tag_18:\n      mload(0x40)\n      tag_22\n      swap2\n      swap1\n      tag_10\n      jump\t// in\n    tag_22:\n      mload(0x40)\n      dup1\n      swap2\n      sub\n      swap1\n      return\n        /* \"lottery smart_contract/lottery.sol\":80:103  address public  manager */\n    tag_8:\n      0x00\n      dup1\n      sload\n      swap1\n      0x0100\n      exp\n      swap1\n      div\n      0xffffffffffffffffffffffffffffffffffffffff\n      and\n      dup2\n      jump\t// out\n        /* \"lottery smart_contract/lottery.sol\":513:649  function pickWinner() public view returns(address){... */\n    tag_13:\n        /* \"lottery smart_contract/lottery.sol\":555:562  address */\n      0x00\n        /* \"lottery smart_contract/lottery.sol\":573:583  uint index */\n      dup1\n        /* \"lottery smart_contract/lottery.sol\":586:594  random() */\n      tag_24\n        /* \"lottery smart_contract/lottery.sol\":586:592  random */\n      tag_25\n        /* \"lottery smart_contract/lottery.sol\":586:594  random() */\n      jump\t// in\n    tag_24:\n        /* \"lottery smart_contract/lottery.sol\":573:594  uint index = random() */\n      swap1\n      pop\n        /* \"lottery smart_contract/lottery.sol\":611:618  players */\n      0x01\n        /* \"lottery smart_contract/lottery.sol\":627:634  players */\n      dup1\n        /* \"lottery smart_contract/lottery.sol\":627:641  players.length */\n      dup1\n      sload\n      swap1\n      pop\n        /* \"lottery smart_contract/lottery.sol\":619:624  index */\n      dup3\n        /* \"lottery smart_contract/lottery.sol\":619:641  index % players.length */\n      tag_26\n      swap2\n      swap1\n      tag_27\n      jump\t// in\n    tag_26:\n        /* \"lottery smart_contract/lottery.sol\":611:642  players[index % players.length] */\n      dup2\n      sload\n      dup2\n      lt\n      tag_28\n      jumpi\n      tag_29\n      tag_30\n      jump\t// in\n    tag_29:\n    tag_28:\n      swap1\n      0x00\n      mstore\n      keccak256(0x00, 0x20)\n      add\n      0x00\n      swap1\n      sload\n      swap1\n      0x0100\n      exp\n      swap1\n      div\n      0xffffffffffffffffffffffffffffffffffffffff\n      and\n        /* \"lottery smart_contract/lottery.sol\":604:642  return players[index % players.length] */\n      swap2\n      pop\n      pop\n        /* \"lottery smart_contract/lottery.sol\":513:649  function pickWinner() public view returns(address){... */\n      swap1\n      jump\t// out\n        /* \"lottery smart_contract/lottery.sol\":197:358  function enter() public payable  {... */\n    tag_16:\n        /* \"lottery smart_contract/lottery.sol\":260:269  .01 ether */\n      0x2386f26fc10000\n        /* \"lottery smart_contract/lottery.sol\":248:257  msg.value */\n      callvalue\n        /* \"lottery smart_contract/lottery.sol\":248:269  msg.value < .01 ether */\n      lt\n        /* \"lottery smart_contract/lottery.sol\":240:317  require(msg.value < .01 ether, \"The amount should be greater than .01 ether\") */\n      tag_33\n      jumpi\n      mload(0x40)\n      0x08c379a000000000000000000000000000000000000000000000000000000000\n      dup2\n      mstore\n      0x04\n      add\n      tag_34\n      swap1\n      tag_35\n      jump\t// in\n    tag_34:\n      mload(0x40)\n      dup1\n      swap2\n      sub\n      swap1\n      revert\n    tag_33:\n        /* \"lottery smart_contract/lottery.sol\":327:334  players */\n      0x01\n        /* \"lottery smart_contract/lottery.sol\":340:350  msg.sender */\n      caller\n        /* \"lottery smart_contract/lottery.sol\":327:351  players.push(msg.sender) */\n      swap1\n      dup1\n      0x01\n      dup2\n      sload\n      add\n      dup1\n      dup3\n      sstore\n      dup1\n      swap2\n      pop\n      pop\n      0x01\n      swap1\n      sub\n      swap1\n      0x00\n      mstore\n      keccak256(0x00, 0x20)\n      add\n      0x00\n      swap1\n      swap2\n      swap1\n      swap2\n      swap1\n      swap2\n      0x0100\n      exp\n      dup2\n      sload\n      dup2\n      0xffffffffffffffffffffffffffffffffffffffff\n      mul\n      not\n      and\n      swap1\n      dup4\n      0xffffffffffffffffffffffffffffffffffffffff\n      and\n      mul\n      or\n      swap1\n      sstore\n      pop\n        /* \"lottery smart_contract/lottery.sol\":197:358  function enter() public payable  {... */\n      jump\t// out\n        /* \"lottery smart_contract/lottery.sol\":109:133  address[] public players */\n    tag_21:\n      0x01\n      dup2\n      dup2\n      sload\n      dup2\n      lt\n      tag_37\n      jumpi\n      0x00\n      dup1\n      revert\n    tag_37:\n      swap1\n      0x00\n      mstore\n      keccak256(0x00, 0x20)\n      add\n      0x00\n      swap2\n      pop\n      sload\n      swap1\n      0x0100\n      exp\n      swap1\n      div\n      0xffffffffffffffffffffffffffffffffffffffff\n      and\n      dup2\n      jump\t// out\n        /* \"lottery smart_contract/lottery.sol\":364:507  function random() private view returns (uint) {... */\n    tag_25:\n        /* \"lottery smart_contract/lottery.sol\":404:408  uint */\n      0x00\n        /* \"lottery smart_contract/lottery.sol\":455:471  block.prevrandao */\n      prevrandao\n        /* \"lottery smart_contract/lottery.sol\":473:488  block.timestamp */\n      timestamp\n        /* \"lottery smart_contract/lottery.sol\":490:497  players */\n      0x01\n        /* \"lottery smart_contract/lottery.sol\":438:498  abi.encodePacked(block.prevrandao, block.timestamp, players) */\n      add(0x20, mload(0x40))\n      tag_40\n      swap4\n      swap3\n      swap2\n      swap1\n      tag_41\n      jump\t// in\n    tag_40:\n      mload(0x40)\n      0x20\n      dup2\n      dup4\n      sub\n      sub\n      dup2\n      mstore\n      swap1\n      0x40\n      mstore\n        /* \"lottery smart_contract/lottery.sol\":428:499  keccak256(abi.encodePacked(block.prevrandao, block.timestamp, players)) */\n      dup1\n      mload\n      swap1\n      0x20\n      add\n      keccak256\n        /* \"lottery smart_contract/lottery.sol\":423:500  uint(keccak256(abi.encodePacked(block.prevrandao, block.timestamp, players))) */\n      0x00\n      shr\n        /* \"lottery smart_contract/lottery.sol\":416:500  return uint(keccak256(abi.encodePacked(block.prevrandao, block.timestamp, players))) */\n      swap1\n      pop\n        /* \"lottery smart_contract/lottery.sol\":364:507  function random() private view returns (uint) {... */\n      swap1\n      jump\t// out\n        /* \"#utility.yul\":7:133   */\n    tag_42:\n        /* \"#utility.yul\":44:51   */\n      0x00\n        /* \"#utility.yul\":84:126   */\n      0xffffffffffffffffffffffffffffffffffffffff\n        /* \"#utility.yul\":77:82   */\n      dup3\n        /* \"#utility.yul\":73:127   */\n      and\n        /* \"#utility.yul\":62:127   */\n      swap1\n      pop\n        /* \"#utility.yul\":7:133   */\n      swap2\n      swap1\n      pop\n      jump\t// out\n        /* \"#utility.yul\":139:235   */\n    tag_43:\n        /* \"#utility.yul\":176:183   */\n      0x00\n        /* \"#utility.yul\":205:229   */\n      tag_71\n        /* \"#utility.yul\":223:228   */\n      dup3\n        /* \"#utility.yul\":205:229   */\n      tag_42\n      jump\t// in\n    tag_71:\n        /* \"#utility.yul\":194:229   */\n      swap1\n      pop\n        /* \"#utility.yul\":139:235   */\n      swap2\n      swap1\n      pop\n      jump\t// out\n        /* \"#utility.yul\":241:359   */\n    tag_44:\n        /* \"#utility.yul\":328:352   */\n      tag_73\n        /* \"#utility.yul\":346:351   */\n      dup2\n        /* \"#utility.yul\":328:352   */\n      tag_43\n      jump\t// in\n    tag_73:\n        /* \"#utility.yul\":323:326   */\n      dup3\n        /* \"#utility.yul\":316:353   */\n      mstore\n        /* \"#utility.yul\":241:359   */\n      pop\n      pop\n      jump\t// out\n        /* \"#utility.yul\":365:587   */\n    tag_10:\n        /* \"#utility.yul\":458:462   */\n      0x00\n        /* \"#utility.yul\":496:498   */\n      0x20\n        /* \"#utility.yul\":485:494   */\n      dup3\n        /* \"#utility.yul\":481:499   */\n      add\n        /* \"#utility.yul\":473:499   */\n      swap1\n      pop\n        /* \"#utility.yul\":509:580   */\n      tag_75\n        /* \"#utility.yul\":577:578   */\n      0x00\n        /* \"#utility.yul\":566:575   */\n      dup4\n        /* \"#utility.yul\":562:579   */\n      add\n        /* \"#utility.yul\":553:559   */\n      dup5\n        /* \"#utility.yul\":509:580   */\n      tag_44\n      jump\t// in\n    tag_75:\n        /* \"#utility.yul\":365:587   */\n      swap3\n      swap2\n      pop\n      pop\n      jump\t// out\n        /* \"#utility.yul\":674:791   */\n    tag_46:\n        /* \"#utility.yul\":783:784   */\n      0x00\n        /* \"#utility.yul\":780:781   */\n      dup1\n        /* \"#utility.yul\":773:785   */\n      revert\n        /* \"#utility.yul\":920:997   */\n    tag_48:\n        /* \"#utility.yul\":957:964   */\n      0x00\n        /* \"#utility.yul\":986:991   */\n      dup2\n        /* \"#utility.yul\":975:991   */\n      swap1\n      pop\n        /* \"#utility.yul\":920:997   */\n      swap2\n      swap1\n      pop\n      jump\t// out\n        /* \"#utility.yul\":1003:1125   */\n    tag_49:\n        /* \"#utility.yul\":1076:1100   */\n      tag_81\n        /* \"#utility.yul\":1094:1099   */\n      dup2\n        /* \"#utility.yul\":1076:1100   */\n      tag_48\n      jump\t// in\n    tag_81:\n        /* \"#utility.yul\":1069:1074   */\n      dup2\n        /* \"#utility.yul\":1066:1101   */\n      eq\n        /* \"#utility.yul\":1056:1119   */\n      tag_82\n      jumpi\n        /* \"#utility.yul\":1115:1116   */\n      0x00\n        /* \"#utility.yul\":1112:1113   */\n      dup1\n        /* \"#utility.yul\":1105:1117   */\n      revert\n        /* \"#utility.yul\":1056:1119   */\n    tag_82:\n        /* \"#utility.yul\":1003:1125   */\n      pop\n      jump\t// out\n        /* \"#utility.yul\":1131:1270   */\n    tag_50:\n        /* \"#utility.yul\":1177:1182   */\n      0x00\n        /* \"#utility.yul\":1215:1221   */\n      dup2\n        /* \"#utility.yul\":1202:1222   */\n      calldataload\n        /* \"#utility.yul\":1193:1222   */\n      swap1\n      pop\n        /* \"#utility.yul\":1231:1264   */\n      tag_84\n        /* \"#utility.yul\":1258:1263   */\n      dup2\n        /* \"#utility.yul\":1231:1264   */\n      tag_49\n      jump\t// in\n    tag_84:\n        /* \"#utility.yul\":1131:1270   */\n      swap3\n      swap2\n      pop\n      pop\n      jump\t// out\n        /* \"#utility.yul\":1276:1605   */\n    tag_20:\n        /* \"#utility.yul\":1335:1341   */\n      0x00\n        /* \"#utility.yul\":1384:1386   */\n      0x20\n        /* \"#utility.yul\":1372:1381   */\n      dup3\n        /* \"#utility.yul\":1363:1370   */\n      dup5\n        /* \"#utility.yul\":1359:1382   */\n      sub\n        /* \"#utility.yul\":1355:1387   */\n      slt\n        /* \"#utility.yul\":1352:1471   */\n      iszero\n      tag_86\n      jumpi\n        /* \"#utility.yul\":1390:1469   */\n      tag_87\n      tag_46\n      jump\t// in\n    tag_87:\n        /* \"#utility.yul\":1352:1471   */\n    tag_86:\n        /* \"#utility.yul\":1510:1511   */\n      0x00\n        /* \"#utility.yul\":1535:1588   */\n      tag_88\n        /* \"#utility.yul\":1580:1587   */\n      dup5\n        /* \"#utility.yul\":1571:1577   */\n      dup3\n        /* \"#utility.yul\":1560:1569   */\n      dup6\n        /* \"#utility.yul\":1556:1578   */\n      add\n        /* \"#utility.yul\":1535:1588   */\n      tag_50\n      jump\t// in\n    tag_88:\n        /* \"#utility.yul\":1525:1588   */\n      swap2\n      pop\n        /* \"#utility.yul\":1481:1598   */\n      pop\n        /* \"#utility.yul\":1276:1605   */\n      swap3\n      swap2\n      pop\n      pop\n      jump\t// out\n        /* \"#utility.yul\":1611:1791   */\n    tag_51:\n        /* \"#utility.yul\":1659:1736   */\n      0x4e487b7100000000000000000000000000000000000000000000000000000000\n        /* \"#utility.yul\":1656:1657   */\n      0x00\n        /* \"#utility.yul\":1649:1737   */\n      mstore\n        /* \"#utility.yul\":1756:1760   */\n      0x12\n        /* \"#utility.yul\":1753:1754   */\n      0x04\n        /* \"#utility.yul\":1746:1761   */\n      mstore\n        /* \"#utility.yul\":1780:1784   */\n      0x24\n        /* \"#utility.yul\":1777:1778   */\n      0x00\n        /* \"#utility.yul\":1770:1785   */\n      revert\n        /* \"#utility.yul\":1797:1973   */\n    tag_27:\n        /* \"#utility.yul\":1829:1830   */\n      0x00\n        /* \"#utility.yul\":1846:1866   */\n      tag_91\n        /* \"#utility.yul\":1864:1865   */\n      dup3\n        /* \"#utility.yul\":1846:1866   */\n      tag_48\n      jump\t// in\n    tag_91:\n        /* \"#utility.yul\":1841:1866   */\n      swap2\n      pop\n        /* \"#utility.yul\":1880:1900   */\n      tag_92\n        /* \"#utility.yul\":1898:1899   */\n      dup4\n        /* \"#utility.yul\":1880:1900   */\n      tag_48\n      jump\t// in\n    tag_92:\n        /* \"#utility.yul\":1875:1900   */\n      swap3\n      pop\n        /* \"#utility.yul\":1919:1920   */\n      dup3\n        /* \"#utility.yul\":1909:1944   */\n      tag_93\n      jumpi\n        /* \"#utility.yul\":1924:1942   */\n      tag_94\n      tag_51\n      jump\t// in\n    tag_94:\n        /* \"#utility.yul\":1909:1944   */\n    tag_93:\n        /* \"#utility.yul\":1965:1966   */\n      dup3\n        /* \"#utility.yul\":1962:1963   */\n      dup3\n        /* \"#utility.yul\":1958:1967   */\n      mod\n        /* \"#utility.yul\":1953:1967   */\n      swap1\n      pop\n        /* \"#utility.yul\":1797:1973   */\n      swap3\n      swap2\n      pop\n      pop\n      jump\t// out\n        /* \"#utility.yul\":1979:2159   */\n    tag_30:\n        /* \"#utility.yul\":2027:2104   */\n      0x4e487b7100000000000000000000000000000000000000000000000000000000\n        /* \"#utility.yul\":2024:2025   */\n      0x00\n        /* \"#utility.yul\":2017:2105   */\n      mstore\n        /* \"#utility.yul\":2124:2128   */\n      0x32\n        /* \"#utility.yul\":2121:2122   */\n      0x04\n        /* \"#utility.yul\":2114:2129   */\n      mstore\n        /* \"#utility.yul\":2148:2152   */\n      0x24\n        /* \"#utility.yul\":2145:2146   */\n      0x00\n        /* \"#utility.yul\":2138:2153   */\n      revert\n        /* \"#utility.yul\":2165:2334   */\n    tag_52:\n        /* \"#utility.yul\":2249:2260   */\n      0x00\n        /* \"#utility.yul\":2283:2289   */\n      dup3\n        /* \"#utility.yul\":2278:2281   */\n      dup3\n        /* \"#utility.yul\":2271:2290   */\n      mstore\n        /* \"#utility.yul\":2323:2327   */\n      0x20\n        /* \"#utility.yul\":2318:2321   */\n      dup3\n        /* \"#utility.yul\":2314:2328   */\n      add\n        /* \"#utility.yul\":2299:2328   */\n      swap1\n      pop\n        /* \"#utility.yul\":2165:2334   */\n      swap3\n      swap2\n      pop\n      pop\n      jump\t// out\n        /* \"#utility.yul\":2340:2570   */\n    tag_53:\n        /* \"#utility.yul\":2480:2514   */\n      0x54686520616d6f756e742073686f756c64206265206772656174657220746861\n        /* \"#utility.yul\":2476:2477   */\n      0x00\n        /* \"#utility.yul\":2468:2474   */\n      dup3\n        /* \"#utility.yul\":2464:2478   */\n      add\n        /* \"#utility.yul\":2457:2515   */\n      mstore\n        /* \"#utility.yul\":2549:2562   */\n      0x6e202e3031206574686572000000000000000000000000000000000000000000\n        /* \"#utility.yul\":2544:2546   */\n      0x20\n        /* \"#utility.yul\":2536:2542   */\n      dup3\n        /* \"#utility.yul\":2532:2547   */\n      add\n        /* \"#utility.yul\":2525:2563   */\n      mstore\n        /* \"#utility.yul\":2340:2570   */\n      pop\n      jump\t// out\n        /* \"#utility.yul\":2576:2942   */\n    tag_54:\n        /* \"#utility.yul\":2718:2721   */\n      0x00\n        /* \"#utility.yul\":2739:2806   */\n      tag_99\n        /* \"#utility.yul\":2803:2805   */\n      0x2b\n        /* \"#utility.yul\":2798:2801   */\n      dup4\n        /* \"#utility.yul\":2739:2806   */\n      tag_52\n      jump\t// in\n    tag_99:\n        /* \"#utility.yul\":2732:2806   */\n      swap2\n      pop\n        /* \"#utility.yul\":2815:2908   */\n      tag_100\n        /* \"#utility.yul\":2904:2907   */\n      dup3\n        /* \"#utility.yul\":2815:2908   */\n      tag_53\n      jump\t// in\n    tag_100:\n        /* \"#utility.yul\":2933:2935   */\n      0x40\n        /* \"#utility.yul\":2928:2931   */\n      dup3\n        /* \"#utility.yul\":2924:2936   */\n      add\n        /* \"#utility.yul\":2917:2936   */\n      swap1\n      pop\n        /* \"#utility.yul\":2576:2942   */\n      swap2\n      swap1\n      pop\n      jump\t// out\n        /* \"#utility.yul\":2948:3367   */\n    tag_35:\n        /* \"#utility.yul\":3114:3118   */\n      0x00\n        /* \"#utility.yul\":3152:3154   */\n      0x20\n        /* \"#utility.yul\":3141:3150   */\n      dup3\n        /* \"#utility.yul\":3137:3155   */\n      add\n        /* \"#utility.yul\":3129:3155   */\n      swap1\n      pop\n        /* \"#utility.yul\":3201:3210   */\n      dup2\n        /* \"#utility.yul\":3195:3199   */\n      dup2\n        /* \"#utility.yul\":3191:3211   */\n      sub\n        /* \"#utility.yul\":3187:3188   */\n      0x00\n        /* \"#utility.yul\":3176:3185   */\n      dup4\n        /* \"#utility.yul\":3172:3189   */\n      add\n        /* \"#utility.yul\":3165:3212   */\n      mstore\n        /* \"#utility.yul\":3229:3360   */\n      tag_102\n        /* \"#utility.yul\":3355:3359   */\n      dup2\n        /* \"#utility.yul\":3229:3360   */\n      tag_54\n      jump\t// in\n    tag_102:\n        /* \"#utility.yul\":3221:3360   */\n      swap1\n      pop\n        /* \"#utility.yul\":2948:3367   */\n      swap2\n      swap1\n      pop\n      jump\t// out\n        /* \"#utility.yul\":3373:3452   */\n    tag_55:\n        /* \"#utility.yul\":3412:3419   */\n      0x00\n        /* \"#utility.yul\":3441:3446   */\n      dup2\n        /* \"#utility.yul\":3430:3446   */\n      swap1\n      pop\n        /* \"#utility.yul\":3373:3452   */\n      swap2\n      swap1\n      pop\n      jump\t// out\n        /* \"#utility.yul\":3458:3615   */\n    tag_56:\n        /* \"#utility.yul\":3563:3608   */\n      tag_105\n        /* \"#utility.yul\":3583:3607   */\n      tag_106\n        /* \"#utility.yul\":3601:3606   */\n      dup3\n        /* \"#utility.yul\":3583:3607   */\n      tag_48\n      jump\t// in\n    tag_106:\n        /* \"#utility.yul\":3563:3608   */\n      tag_55\n      jump\t// in\n    tag_105:\n        /* \"#utility.yul\":3558:3561   */\n      dup3\n        /* \"#utility.yul\":3551:3609   */\n      mstore\n        /* \"#utility.yul\":3458:3615   */\n      pop\n      pop\n      jump\t// out\n        /* \"#utility.yul\":3621:3732   */\n    tag_57:\n        /* \"#utility.yul\":3685:3691   */\n      0x00\n        /* \"#utility.yul\":3719:3724   */\n      dup2\n        /* \"#utility.yul\":3713:3725   */\n      sload\n        /* \"#utility.yul\":3703:3725   */\n      swap1\n      pop\n        /* \"#utility.yul\":3621:3732   */\n      swap2\n      swap1\n      pop\n      jump\t// out\n        /* \"#utility.yul\":3738:3901   */\n    tag_58:\n        /* \"#utility.yul\":3855:3866   */\n      0x00\n        /* \"#utility.yul\":3892:3895   */\n      dup2\n        /* \"#utility.yul\":3877:3895   */\n      swap1\n      pop\n        /* \"#utility.yul\":3738:3901   */\n      swap3\n      swap2\n      pop\n      pop\n      jump\t// out\n        /* \"#utility.yul\":3907:4063   */\n    tag_59:\n        /* \"#utility.yul\":3971:3975   */\n      0x00\n        /* \"#utility.yul\":3994:3997   */\n      dup2\n        /* \"#utility.yul\":3986:3997   */\n      swap1\n      pop\n        /* \"#utility.yul\":4017:4020   */\n      dup2\n        /* \"#utility.yul\":4014:4015   */\n      0x00\n        /* \"#utility.yul\":4007:4021   */\n      mstore\n        /* \"#utility.yul\":4051:4055   */\n      0x20\n        /* \"#utility.yul\":4048:4049   */\n      0x00\n        /* \"#utility.yul\":4038:4056   */\n      keccak256\n        /* \"#utility.yul\":4030:4056   */\n      swap1\n      pop\n        /* \"#utility.yul\":3907:4063   */\n      swap2\n      swap1\n      pop\n      jump\t// out\n        /* \"#utility.yul\":4069:4185   */\n    tag_60:\n        /* \"#utility.yul\":4154:4178   */\n      tag_111\n        /* \"#utility.yul\":4172:4177   */\n      dup2\n        /* \"#utility.yul\":4154:4178   */\n      tag_43\n      jump\t// in\n    tag_111:\n        /* \"#utility.yul\":4149:4152   */\n      dup3\n        /* \"#utility.yul\":4142:4179   */\n      mstore\n        /* \"#utility.yul\":4069:4185   */\n      pop\n      pop\n      jump\t// out\n        /* \"#utility.yul\":4191:4386   */\n    tag_61:\n        /* \"#utility.yul\":4268:4278   */\n      0x00\n        /* \"#utility.yul\":4289:4343   */\n      tag_113\n        /* \"#utility.yul\":4339:4342   */\n      dup4\n        /* \"#utility.yul\":4331:4337   */\n      dup4\n        /* \"#utility.yul\":4289:4343   */\n      tag_60\n      jump\t// in\n    tag_113:\n        /* \"#utility.yul\":4375:4379   */\n      0x20\n        /* \"#utility.yul\":4370:4373   */\n      dup4\n        /* \"#utility.yul\":4366:4380   */\n      add\n        /* \"#utility.yul\":4352:4380   */\n      swap1\n      pop\n        /* \"#utility.yul\":4191:4386   */\n      swap3\n      swap2\n      pop\n      pop\n      jump\t// out\n        /* \"#utility.yul\":4392:4494   */\n    tag_62:\n        /* \"#utility.yul\":4434:4442   */\n      0x00\n        /* \"#utility.yul\":4481:4486   */\n      dup2\n        /* \"#utility.yul\":4478:4479   */\n      0x00\n        /* \"#utility.yul\":4474:4487   */\n      shr\n        /* \"#utility.yul\":4453:4487   */\n      swap1\n      pop\n        /* \"#utility.yul\":4392:4494   */\n      swap2\n      swap1\n      pop\n      jump\t// out\n        /* \"#utility.yul\":4500:4639   */\n    tag_63:\n        /* \"#utility.yul\":4550:4557   */\n      0x00\n        /* \"#utility.yul\":4590:4632   */\n      0xffffffffffffffffffffffffffffffffffffffff\n        /* \"#utility.yul\":4583:4588   */\n      dup3\n        /* \"#utility.yul\":4579:4633   */\n      and\n        /* \"#utility.yul\":4568:4633   */\n      swap1\n      pop\n        /* \"#utility.yul\":4500:4639   */\n      swap2\n      swap1\n      pop\n      jump\t// out\n        /* \"#utility.yul\":4645:4811   */\n    tag_64:\n        /* \"#utility.yul\":4714:4719   */\n      0x00\n        /* \"#utility.yul\":4739:4805   */\n      tag_117\n        /* \"#utility.yul\":4770:4804   */\n      tag_118\n        /* \"#utility.yul\":4793:4803   */\n      dup4\n        /* \"#utility.yul\":4770:4804   */\n      tag_62\n      jump\t// in\n    tag_118:\n        /* \"#utility.yul\":4739:4805   */\n      tag_63\n      jump\t// in\n    tag_117:\n        /* \"#utility.yul\":4730:4805   */\n      swap1\n      pop\n        /* \"#utility.yul\":4645:4811   */\n      swap2\n      swap1\n      pop\n      jump\t// out\n        /* \"#utility.yul\":4817:4961   */\n    tag_65:\n        /* \"#utility.yul\":4872:4877   */\n      0x00\n        /* \"#utility.yul\":4897:4954   */\n      tag_120\n        /* \"#utility.yul\":4948:4952   */\n      dup3\n        /* \"#utility.yul\":4942:4953   */\n      sload\n        /* \"#utility.yul\":4897:4954   */\n      tag_64\n      jump\t// in\n    tag_120:\n        /* \"#utility.yul\":4888:4954   */\n      swap1\n      pop\n        /* \"#utility.yul\":4817:4961   */\n      swap2\n      swap1\n      pop\n      jump\t// out\n        /* \"#utility.yul\":4967:5077   */\n    tag_66:\n        /* \"#utility.yul\":5034:5038   */\n      0x00\n        /* \"#utility.yul\":5066:5070   */\n      0x01\n        /* \"#utility.yul\":5061:5064   */\n      dup3\n        /* \"#utility.yul\":5057:5071   */\n      add\n        /* \"#utility.yul\":5049:5071   */\n      swap1\n      pop\n        /* \"#utility.yul\":4967:5077   */\n      swap2\n      swap1\n      pop\n      jump\t// out\n        /* \"#utility.yul\":5113:5908   */\n    tag_67:\n        /* \"#utility.yul\":5247:5250   */\n      0x00\n        /* \"#utility.yul\":5276:5327   */\n      tag_123\n        /* \"#utility.yul\":5321:5326   */\n      dup3\n        /* \"#utility.yul\":5276:5327   */\n      tag_57\n      jump\t// in\n    tag_123:\n        /* \"#utility.yul\":5343:5447   */\n      tag_124\n        /* \"#utility.yul\":5440:5446   */\n      dup2\n        /* \"#utility.yul\":5435:5438   */\n      dup6\n        /* \"#utility.yul\":5343:5447   */\n      tag_58\n      jump\t// in\n    tag_124:\n        /* \"#utility.yul\":5336:5447   */\n      swap4\n      pop\n        /* \"#utility.yul\":5471:5524   */\n      tag_125\n        /* \"#utility.yul\":5518:5523   */\n      dup4\n        /* \"#utility.yul\":5471:5524   */\n      tag_59\n      jump\t// in\n    tag_125:\n        /* \"#utility.yul\":5547:5554   */\n      dup1\n        /* \"#utility.yul\":5578:5579   */\n      0x00\n        /* \"#utility.yul\":5563:5883   */\n    tag_126:\n        /* \"#utility.yul\":5588:5594   */\n      dup4\n        /* \"#utility.yul\":5585:5586   */\n      dup2\n        /* \"#utility.yul\":5582:5595   */\n      lt\n        /* \"#utility.yul\":5563:5883   */\n      iszero\n      tag_128\n      jumpi\n        /* \"#utility.yul\":5658:5702   */\n      tag_129\n        /* \"#utility.yul\":5695:5701   */\n      dup3\n        /* \"#utility.yul\":5658:5702   */\n      tag_65\n      jump\t// in\n    tag_129:\n        /* \"#utility.yul\":5722:5793   */\n      tag_130\n        /* \"#utility.yul\":5789:5792   */\n      dup9\n        /* \"#utility.yul\":5774:5787   */\n      dup3\n        /* \"#utility.yul\":5722:5793   */\n      tag_61\n      jump\t// in\n    tag_130:\n        /* \"#utility.yul\":5715:5793   */\n      swap8\n      pop\n        /* \"#utility.yul\":5816:5873   */\n      tag_131\n        /* \"#utility.yul\":5866:5872   */\n      dup4\n        /* \"#utility.yul\":5816:5873   */\n      tag_66\n      jump\t// in\n    tag_131:\n        /* \"#utility.yul\":5806:5873   */\n      swap3\n      pop\n        /* \"#utility.yul\":5623:5883   */\n      pop\n        /* \"#utility.yul\":5610:5611   */\n      0x01\n        /* \"#utility.yul\":5607:5608   */\n      dup2\n        /* \"#utility.yul\":5603:5612   */\n      add\n        /* \"#utility.yul\":5598:5612   */\n      swap1\n      pop\n        /* \"#utility.yul\":5563:5883   */\n      jump(tag_126)\n    tag_128:\n        /* \"#utility.yul\":5567:5581   */\n      pop\n        /* \"#utility.yul\":5899:5902   */\n      dup6\n        /* \"#utility.yul\":5892:5902   */\n      swap4\n      pop\n        /* \"#utility.yul\":5252:5908   */\n      pop\n      pop\n      pop\n        /* \"#utility.yul\":5113:5908   */\n      swap3\n      swap2\n      pop\n      pop\n      jump\t// out\n        /* \"#utility.yul\":5914:6525   */\n    tag_41:\n        /* \"#utility.yul\":6129:6132   */\n      0x00\n        /* \"#utility.yul\":6144:6219   */\n      tag_133\n        /* \"#utility.yul\":6215:6218   */\n      dup3\n        /* \"#utility.yul\":6206:6212   */\n      dup7\n        /* \"#utility.yul\":6144:6219   */\n      tag_56\n      jump\t// in\n    tag_133:\n        /* \"#utility.yul\":6244:6246   */\n      0x20\n        /* \"#utility.yul\":6239:6242   */\n      dup3\n        /* \"#utility.yul\":6235:6247   */\n      add\n        /* \"#utility.yul\":6228:6247   */\n      swap2\n      pop\n        /* \"#utility.yul\":6257:6332   */\n      tag_134\n        /* \"#utility.yul\":6328:6331   */\n      dup3\n        /* \"#utility.yul\":6319:6325   */\n      dup6\n        /* \"#utility.yul\":6257:6332   */\n      tag_56\n      jump\t// in\n    tag_134:\n        /* \"#utility.yul\":6357:6359   */\n      0x20\n        /* \"#utility.yul\":6352:6355   */\n      dup3\n        /* \"#utility.yul\":6348:6360   */\n      add\n        /* \"#utility.yul\":6341:6360   */\n      swap2\n      pop\n        /* \"#utility.yul\":6377:6499   */\n      tag_135\n        /* \"#utility.yul\":6495:6498   */\n      dup3\n        /* \"#utility.yul\":6486:6492   */\n      dup5\n        /* \"#utility.yul\":6377:6499   */\n      tag_67\n      jump\t// in\n    tag_135:\n        /* \"#utility.yul\":6370:6499   */\n      swap2\n      pop\n        /* \"#utility.yul\":6516:6519   */\n      dup2\n        /* \"#utility.yul\":6509:6519   */\n      swap1\n      pop\n        /* \"#utility.yul\":5914:6525   */\n      swap5\n      swap4\n      pop\n      pop\n      pop\n      pop\n      jump\t// out\n\n    auxdata: 0xa2646970667358221220e4fe0256f0d52db1997d81242c90d7b8fef057a6cab8f09e0bc5e2df3fd691f764736f6c63430008130033\n}\n",
				"bytecode": {
					"linkReferences": {},
					"object": "608060405234801561001057600080fd5b50336000806101000a81548173ffffffffffffffffffffffffffffffffffffffff021916908373ffffffffffffffffffffffffffffffffffffffff16021790555061062d806100606000396000f3fe60806040526004361061003f5760003560e01c8063481c6a75146100445780635d495aea1461006f578063e97dcb621461009a578063f71d96cb146100a4575b600080fd5b34801561005057600080fd5b506100596100e1565b60405161006691906102ca565b60405180910390f35b34801561007b57600080fd5b50610084610105565b60405161009191906102ca565b60405180910390f35b6100a2610166565b005b3480156100b057600080fd5b506100cb60048036038101906100c69190610320565b610214565b6040516100d891906102ca565b60405180910390f35b60008054906101000a900473ffffffffffffffffffffffffffffffffffffffff1681565b600080610110610253565b90506001808054905082610124919061037c565b81548110610135576101346103ad565b5b9060005260206000200160009054906101000a900473ffffffffffffffffffffffffffffffffffffffff1691505090565b662386f26fc1000034106101af576040517f08c379a00000000000000000000000000000000000000000000000000000000081526004016101a69061045f565b60405180910390fd5b6001339080600181540180825580915050600190039060005260206000200160009091909190916101000a81548173ffffffffffffffffffffffffffffffffffffffff021916908373ffffffffffffffffffffffffffffffffffffffff160217905550565b6001818154811061022457600080fd5b906000526020600020016000915054906101000a900473ffffffffffffffffffffffffffffffffffffffff1681565b60004442600160405160200161026b939291906105be565b6040516020818303038152906040528051906020012060001c905090565b600073ffffffffffffffffffffffffffffffffffffffff82169050919050565b60006102b482610289565b9050919050565b6102c4816102a9565b82525050565b60006020820190506102df60008301846102bb565b92915050565b600080fd5b6000819050919050565b6102fd816102ea565b811461030857600080fd5b50565b60008135905061031a816102f4565b92915050565b600060208284031215610336576103356102e5565b5b60006103448482850161030b565b91505092915050565b7f4e487b7100000000000000000000000000000000000000000000000000000000600052601260045260246000fd5b6000610387826102ea565b9150610392836102ea565b9250826103a2576103a161034d565b5b828206905092915050565b7f4e487b7100000000000000000000000000000000000000000000000000000000600052603260045260246000fd5b600082825260208201905092915050565b7f54686520616d6f756e742073686f756c6420626520677265617465722074686160008201527f6e202e3031206574686572000000000000000000000000000000000000000000602082015250565b6000610449602b836103dc565b9150610454826103ed565b604082019050919050565b600060208201905081810360008301526104788161043c565b9050919050565b6000819050919050565b61049a610495826102ea565b61047f565b82525050565b600081549050919050565b600081905092915050565b60008190508160005260206000209050919050565b6104d4816102a9565b82525050565b60006104e683836104cb565b60208301905092915050565b60008160001c9050919050565b600073ffffffffffffffffffffffffffffffffffffffff82169050919050565b600061053261052d836104f2565b6104ff565b9050919050565b6000610545825461051f565b9050919050565b6000600182019050919050565b6000610564826104a0565b61056e81856104ab565b9350610579836104b6565b8060005b838110156105b15761058e82610539565b61059888826104da565b97506105a38361054c565b92505060018101905061057d565b5085935050505092915050565b60006105ca8286610489565b6020820191506105da8285610489565b6020820191506105ea8284610559565b915081905094935050505056fea2646970667358221220e4fe0256f0d52db1997d81242c90d7b8fef057a6cab8f09e0bc5e2df3fd691f764736f6c63430008130033",
					"opcodes": "PUSH1 0x80 PUSH1 0x40 MSTORE CALLVALUE DUP1 ISZERO PUSH2 0x10 JUMPI PUSH1 0x0 DUP1 REVERT JUMPDEST POP CALLER PUSH1 0x0 DUP1 PUSH2 0x100 EXP DUP2 SLOAD DUP2 PUSH20 0xFFFFFFFFFFFFFFFFFFFFFFFFFFFFFFFFFFFFFFFF MUL NOT AND SWAP1 DUP4 PUSH20 0xFFFFFFFFFFFFFFFFFFFFFFFFFFFFFFFFFFFFFFFF AND MUL OR SWAP1 SSTORE POP PUSH2 0x62D DUP1 PUSH2 0x60 PUSH1 0x0 CODECOPY PUSH1 0x0 RETURN INVALID PUSH1 0x80 PUSH1 0x40 MSTORE PUSH1 0x4 CALLDATASIZE LT PUSH2 0x3F JUMPI PUSH1 0x0 CALLDATALOAD PUSH1 0xE0 SHR DUP1 PUSH4 0x481C6A75 EQ PUSH2 0x44 JUMPI DUP1 PUSH4 0x5D495AEA EQ PUSH2 0x6F JUMPI DUP1 PUSH4 0xE97DCB62 EQ PUSH2 0x9A JUMPI DUP1 PUSH4 0xF71D96CB EQ PUSH2 0xA4 JUMPI JUMPDEST PUSH1 0x0 DUP1 REVERT JUMPDEST CALLVALUE DUP1 ISZERO PUSH2 0x50 JUMPI PUSH1 0x0 DUP1 REVERT JUMPDEST POP PUSH2 0x59 PUSH2 0xE1 JUMP JUMPDEST PUSH1 0x40 MLOAD PUSH2 0x66 SWAP2 SWAP1 PUSH2 0x2CA JUMP JUMPDEST PUSH1 0x40 MLOAD DUP1 SWAP2 SUB SWAP1 RETURN JUMPDEST CALLVALUE DUP1 ISZERO PUSH2 0x7B JUMPI PUSH1 0x0 DUP1 REVERT JUMPDEST POP PUSH2 0x84 PUSH2 0x105 JUMP JUMPDEST PUSH1 0x40 MLOAD PUSH2 0x91 SWAP2 SWAP1 PUSH2 0x2CA JUMP JUMPDEST PUSH1 0x40 MLOAD DUP1 SWAP2 SUB SWAP1 RETURN JUMPDEST PUSH2 0xA2 PUSH2 0x166 JUMP JUMPDEST STOP JUMPDEST CALLVALUE DUP1 ISZERO PUSH2 0xB0 JUMPI PUSH1 0x0 DUP1 REVERT JUMPDEST POP PUSH2 0xCB PUSH1 0x4 DUP1 CALLDATASIZE SUB DUP2 ADD SWAP1 PUSH2 0xC6 SWAP2 SWAP1 PUSH2 0x320 JUMP JUMPDEST PUSH2 0x214 JUMP JUMPDEST PUSH1 0x40 MLOAD PUSH2 0xD8 SWAP2 SWAP1 PUSH2 0x2CA JUMP JUMPDEST PUSH1 0x40 MLOAD DUP1 SWAP2 SUB SWAP1 RETURN JUMPDEST PUSH1 0x0 DUP1 SLOAD SWAP1 PUSH2 0x100 EXP SWAP1 DIV PUSH20 0xFFFFFFFFFFFFFFFFFFFFFFFFFFFFFFFFFFFFFFFF AND DUP2 JUMP JUMPDEST PUSH1 0x0 DUP1 PUSH2 0x110 PUSH2 0x253 JUMP JUMPDEST SWAP1 POP PUSH1 0x1 DUP1 DUP1 SLOAD SWAP1 POP DUP3 PUSH2 0x124 SWAP2 SWAP1 PUSH2 0x37C JUMP JUMPDEST DUP2 SLOAD DUP2 LT PUSH2 0x135 JUMPI PUSH2 0x134 PUSH2 0x3AD JUMP JUMPDEST JUMPDEST SWAP1 PUSH1 0x0 MSTORE PUSH1 0x20 PUSH1 0x0 KECCAK256 ADD PUSH1 0x0 SWAP1 SLOAD SWAP1 PUSH2 0x100 EXP SWAP1 DIV PUSH20 0xFFFFFFFFFFFFFFFFFFFFFFFFFFFFFFFFFFFFFFFF AND SWAP2 POP POP SWAP1 JUMP JUMPDEST PUSH7 0x2386F26FC10000 CALLVALUE LT PUSH2 0x1AF JUMPI PUSH1 0x40 MLOAD PUSH32 0x8C379A000000000000000000000000000000000000000000000000000000000 DUP2 MSTORE PUSH1 0x4 ADD PUSH2 0x1A6 SWAP1 PUSH2 0x45F JUMP JUMPDEST PUSH1 0x40 MLOAD DUP1 SWAP2 SUB SWAP1 REVERT JUMPDEST PUSH1 0x1 CALLER SWAP1 DUP1 PUSH1 0x1 DUP2 SLOAD ADD DUP1 DUP3 SSTORE DUP1 SWAP2 POP POP PUSH1 0x1 SWAP1 SUB SWAP1 PUSH1 0x0 MSTORE PUSH1 0x20 PUSH1 0x0 KECCAK256 ADD PUSH1 0x0 SWAP1 SWAP2 SWAP1 SWAP2 SWAP1 SWAP2 PUSH2 0x100 EXP DUP2 SLOAD DUP2 PUSH20 0xFFFFFFFFFFFFFFFFFFFFFFFFFFFFFFFFFFFFFFFF MUL NOT AND SWAP1 DUP4 PUSH20 0xFFFFFFFFFFFFFFFFFFFFFFFFFFFFFFFFFFFFFFFF AND MUL OR SWAP1 SSTORE POP JUMP JUMPDEST PUSH1 0x1 DUP2 DUP2 SLOAD DUP2 LT PUSH2 0x224 JUMPI PUSH1 0x0 DUP1 REVERT JUMPDEST SWAP1 PUSH1 0x0 MSTORE PUSH1 0x20 PUSH1 0x0 KECCAK256 ADD PUSH1 0x0 SWAP2 POP SLOAD SWAP1 PUSH2 0x100 EXP SWAP1 DIV PUSH20 0xFFFFFFFFFFFFFFFFFFFFFFFFFFFFFFFFFFFFFFFF AND DUP2 JUMP JUMPDEST PUSH1 0x0 PREVRANDAO TIMESTAMP PUSH1 0x1 PUSH1 0x40 MLOAD PUSH1 0x20 ADD PUSH2 0x26B SWAP4 SWAP3 SWAP2 SWAP1 PUSH2 0x5BE JUMP JUMPDEST PUSH1 0x40 MLOAD PUSH1 0x20 DUP2 DUP4 SUB SUB DUP2 MSTORE SWAP1 PUSH1 0x40 MSTORE DUP1 MLOAD SWAP1 PUSH1 0x20 ADD KECCAK256 PUSH1 0x0 SHR SWAP1 POP SWAP1 JUMP JUMPDEST PUSH1 0x0 PUSH20 0xFFFFFFFFFFFFFFFFFFFFFFFFFFFFFFFFFFFFFFFF DUP3 AND SWAP1 POP SWAP2 SWAP1 POP JUMP JUMPDEST PUSH1 0x0 PUSH2 0x2B4 DUP3 PUSH2 0x289 JUMP JUMPDEST SWAP1 POP SWAP2 SWAP1 POP JUMP JUMPDEST PUSH2 0x2C4 DUP2 PUSH2 0x2A9 JUMP JUMPDEST DUP3 MSTORE POP POP JUMP JUMPDEST PUSH1 0x0 PUSH1 0x20 DUP3 ADD SWAP1 POP PUSH2 0x2DF PUSH1 0x0 DUP4 ADD DUP5 PUSH2 0x2BB JUMP JUMPDEST SWAP3 SWAP2 POP POP JUMP JUMPDEST PUSH1 0x0 DUP1 REVERT JUMPDEST PUSH1 0x0 DUP2 SWAP1 POP SWAP2 SWAP1 POP JUMP JUMPDEST PUSH2 0x2FD DUP2 PUSH2 0x2EA JUMP JUMPDEST DUP2 EQ PUSH2 0x308 JUMPI PUSH1 0x0 DUP1 REVERT JUMPDEST POP JUMP JUMPDEST PUSH1 0x0 DUP2 CALLDATALOAD SWAP1 POP PUSH2 0x31A DUP2 PUSH2 0x2F4 JUMP JUMPDEST SWAP3 SWAP2 POP POP JUMP JUMPDEST PUSH1 0x0 PUSH1 0x20 DUP3 DUP5 SUB SLT ISZERO PUSH2 0x336 JUMPI PUSH2 0x335 PUSH2 0x2E5 JUMP JUMPDEST JUMPDEST PUSH1 0x0 PUSH2 0x344 DUP5 DUP3 DUP6 ADD PUSH2 0x30B JUMP JUMPDEST SWAP2 POP POP SWAP3 SWAP2 POP POP JUMP JUMPDEST PUSH32 0x4E487B7100000000000000000000000000000000000000000000000000000000 PUSH1 0x0 MSTORE PUSH1 0x12 PUSH1 0x4 MSTORE PUSH1 0x24 PUSH1 0x0 REVERT JUMPDEST PUSH1 0x0 PUSH2 0x387 DUP3 PUSH2 0x2EA JUMP JUMPDEST SWAP2 POP PUSH2 0x392 DUP4 PUSH2 0x2EA JUMP JUMPDEST SWAP3 POP DUP3 PUSH2 0x3A2 JUMPI PUSH2 0x3A1 PUSH2 0x34D JUMP JUMPDEST JUMPDEST DUP3 DUP3 MOD SWAP1 POP SWAP3 SWAP2 POP POP JUMP JUMPDEST PUSH32 0x4E487B7100000000000000000000000000000000000000000000000000000000 PUSH1 0x0 MSTORE PUSH1 0x32 PUSH1 0x4 MSTORE PUSH1 0x24 PUSH1 0x0 REVERT JUMPDEST PUSH1 0x0 DUP3 DUP3 MSTORE PUSH1 0x20 DUP3 ADD SWAP1 POP SWAP3 SWAP2 POP POP JUMP JUMPDEST PUSH32 0x54686520616D6F756E742073686F756C64206265206772656174657220746861 PUSH1 0x0 DUP3 ADD MSTORE PUSH32 0x6E202E3031206574686572000000000000000000000000000000000000000000 PUSH1 0x20 DUP3 ADD MSTORE POP JUMP JUMPDEST PUSH1 0x0 PUSH2 0x449 PUSH1 0x2B DUP4 PUSH2 0x3DC JUMP JUMPDEST SWAP2 POP PUSH2 0x454 DUP3 PUSH2 0x3ED JUMP JUMPDEST PUSH1 0x40 DUP3 ADD SWAP1 POP SWAP2 SWAP1 POP JUMP JUMPDEST PUSH1 0x0 PUSH1 0x20 DUP3 ADD SWAP1 POP DUP2 DUP2 SUB PUSH1 0x0 DUP4 ADD MSTORE PUSH2 0x478 DUP2 PUSH2 0x43C JUMP JUMPDEST SWAP1 POP SWAP2 SWAP1 POP JUMP JUMPDEST PUSH1 0x0 DUP2 SWAP1 POP SWAP2 SWAP1 POP JUMP JUMPDEST PUSH2 0x49A PUSH2 0x495 DUP3 PUSH2 0x2EA JUMP JUMPDEST PUSH2 0x47F JUMP JUMPDEST DUP3 MSTORE POP POP JUMP JUMPDEST PUSH1 0x0 DUP2 SLOAD SWAP1 POP SWAP2 SWAP1 POP JUMP JUMPDEST PUSH1 0x0 DUP2 SWAP1 POP SWAP3 SWAP2 POP POP JUMP JUMPDEST PUSH1 0x0 DUP2 SWAP1 POP DUP2 PUSH1 0x0 MSTORE PUSH1 0x20 PUSH1 0x0 KECCAK256 SWAP1 POP SWAP2 SWAP1 POP JUMP JUMPDEST PUSH2 0x4D4 DUP2 PUSH2 0x2A9 JUMP JUMPDEST DUP3 MSTORE POP POP JUMP JUMPDEST PUSH1 0x0 PUSH2 0x4E6 DUP4 DUP4 PUSH2 0x4CB JUMP JUMPDEST PUSH1 0x20 DUP4 ADD SWAP1 POP SWAP3 SWAP2 POP POP JUMP JUMPDEST PUSH1 0x0 DUP2 PUSH1 0x0 SHR SWAP1 POP SWAP2 SWAP1 POP JUMP JUMPDEST PUSH1 0x0 PUSH20 0xFFFFFFFFFFFFFFFFFFFFFFFFFFFFFFFFFFFFFFFF DUP3 AND SWAP1 POP SWAP2 SWAP1 POP JUMP JUMPDEST PUSH1 0x0 PUSH2 0x532 PUSH2 0x52D DUP4 PUSH2 0x4F2 JUMP JUMPDEST PUSH2 0x4FF JUMP JUMPDEST SWAP1 POP SWAP2 SWAP1 POP JUMP JUMPDEST PUSH1 0x0 PUSH2 0x545 DUP3 SLOAD PUSH2 0x51F JUMP JUMPDEST SWAP1 POP SWAP2 SWAP1 POP JUMP JUMPDEST PUSH1 0x0 PUSH1 0x1 DUP3 ADD SWAP1 POP SWAP2 SWAP1 POP JUMP JUMPDEST PUSH1 0x0 PUSH2 0x564 DUP3 PUSH2 0x4A0 JUMP JUMPDEST PUSH2 0x56E DUP2 DUP6 PUSH2 0x4AB JUMP JUMPDEST SWAP4 POP PUSH2 0x579 DUP4 PUSH2 0x4B6 JUMP JUMPDEST DUP1 PUSH1 0x0 JUMPDEST DUP4 DUP2 LT ISZERO PUSH2 0x5B1 JUMPI PUSH2 0x58E DUP3 PUSH2 0x539 JUMP JUMPDEST PUSH2 0x598 DUP9 DUP3 PUSH2 0x4DA JUMP JUMPDEST SWAP8 POP PUSH2 0x5A3 DUP4 PUSH2 0x54C JUMP JUMPDEST SWAP3 POP POP PUSH1 0x1 DUP2 ADD SWAP1 POP PUSH2 0x57D JUMP JUMPDEST POP DUP6 SWAP4 POP POP POP POP SWAP3 SWAP2 POP POP JUMP JUMPDEST PUSH1 0x0 PUSH2 0x5CA DUP3 DUP7 PUSH2 0x489 JUMP JUMPDEST PUSH1 0x20 DUP3 ADD SWAP2 POP PUSH2 0x5DA DUP3 DUP6 PUSH2 0x489 JUMP JUMPDEST PUSH1 0x20 DUP3 ADD SWAP2 POP PUSH2 0x5EA DUP3 DUP5 PUSH2 0x559 JUMP JUMPDEST SWAP2 POP DUP2 SWAP1 POP SWAP5 SWAP4 POP POP POP POP JUMP INVALID LOG2 PUSH5 0x6970667358 0x22 SLT KECCAK256 0xE4 INVALID MUL JUMP CREATE 0xD5 0x2D 0xB1 SWAP10 PUSH30 0x81242C90D7B8FEF057A6CAB8F09E0BC5E2DF3FD691F764736F6C63430008 SGT STOP CALLER "
				},
				"gasEstimates": {
					"creation": {
						"codeDepositCost": "316200",
						"executionCost": "24621",
						"totalCost": "340821"
					},
					"external": {
						"enter()": "48742",
						"manager()": "2489",
						"pickWinner()": "infinite",
						"players(uint256)": "5000"
					},
					"internal": {
						"random()": "infinite"
					}
				},
				"methodIdentifiers": {
					"enter()": "e97dcb62",
					"manager()": "481c6a75",
					"pickWinner()": "5d495aea",
					"players(uint256)": "f71d96cb"
				}
			},
			"storageLayout": {
				"storage": [
					{
						"astId": 3,
						"contract": "lottery smart_contract/lottery.sol:Lottery",
						"label": "manager",
						"offset": 0,
						"slot": "0",
						"type": "t_address"
					},
					{
						"astId": 6,
						"contract": "lottery smart_contract/lottery.sol:Lottery",
						"label": "players",
						"offset": 0,
						"slot": "1",
						"type": "t_array(t_address)dyn_storage"
					}
				],
				"types": {
					"t_address": {
						"encoding": "inplace",
						"label": "address",
						"numberOfBytes": "20"
					},
					"t_array(t_address)dyn_storage": {
						"base": "t_address",
						"encoding": "dynamic_array",
						"label": "address[]",
						"numberOfBytes": "32"
					}
				}
			},
			"userdoc": {
				"kind": "user",
				"methods": {},
				"version": 1
			}
		}
	}
}